:020000040800F2
:1000000000500020250A0008AD090008B5090008C5
:10001000BD090008C5090008CD090008000000005E
:10002000000000000000000000000000D5090008EA
:10003000E109000800000000ED090008F9090008C6
:100040006D0A00086D0A00086D0A00086D0A0008B4
:100050006D0A00086D0A00086D0A00086D0A0008A4
:100060006D0A00086D0A00086D0A0008050A0008FC
:100070006D0A00086D0A00086D0A00086D0A000884
:100080006D0A00086D0A00086D0A00086D0A000874
:100090006D0A00086D0A00086D0A00086D0A000864
:1000A0006D0A00086D0A00086D0A00086D0A000854
:1000B0006D0A00086D0A00086D0A00086D0A000844
:1000C0006D0A00086D0A00086D0A00086D0A000834
:1000D0006D0A00086D0A00086D0A00086D0A000824
:1000E0006D0A00086D0A00086D0A00080000000093
:1000F0000000000000000000000000000000000000
:0C01000000000000000000005FF808F1A3
:10010C0010B5054C237833B9044B13B10448AFF345
:10011C0000800123237010BD0C00002000000000A3
:10012C00B428000808B5034B1BB103490348AFF3CF
:10013C00008008BD0000000010000020B42800085A
:10014C0080B500AF00F0FAFA01224FF48071054837
:10015C0001F0FEFD01224FF40071024801F0F8FDA0
:10016C0000BF80BD000C014080B500AF01224FF4F0
:10017C0000710B4801F0ECFD01224FF4807108482E
:10018C0001F0E6FD00224FF40071054801F0E0FD9E
:10019C0000224FF48071024801F0DAFD00BF80BDEF
:1001AC00000C014080B500AF00224FF400710848EC
:1001BC0001F0CEFD01224FF48071054801F0C8FD1D
:1001CC0001224FF40071024801F0C2FD00BF80BD56
:1001DC00000C014080B584B000AF0346FB710023D6
:1001EC00FB731FE0FA79FB7B802141FA03F3134088
:1001FC00002B14BF01230023DBB21A464FF400710D
:10020C00124801F0A5FD01224FF480710F4801F056
:10021C009FFD00224FF480710C4801F099FDFB7B8F
:10022C000133FB73FB7B072BDCD901224FF480716C
:10023C00064801F08DFD00224FF48071034801F057
:10024C0087FD00BF1037BD4680BD00BF000C0140CC
:10025C0080B582B000AF0346FB71FFF785FF7820B5
:10026C00FFF7B8FF0020FFF7B5FFFB791846FFF743
:10027C00B1FFFFF797FF00BF0837BD4680BD80B5C3
:10028C0082B000AF0346FB71FFF76EFF7820FFF7DB
:10029C00A1FF4020FFF79EFFFB791846FFF79AFF5E
:1002AC00FFF780FF00BF0837BD4680BD80B582B028
:1002BC0000AF03460A46FB711346BB71FB7963F032
:1002CC004F03DBB21846FFF7C3FFBB791B09DBB248
:1002DC0043F01003DBB21846FFF7BAFFBB7903F00B
:1002EC000F03DBB21846FFF7B3FF00BF0837BD465C
:1002FC0080BD80B582B000AF0023BB7114E0BB7928
:10030C0000211846FFF7D2FF0023FB7105E0002007
:10031C00FFF7B5FFFB790133FB7197F90730002B21
:10032C00F5DABB790133BB71BB79072BE7D900BF79
:10033C0000BF0837BD4680BD80B584B000AF034612
:10034C00FB710B46BB7113467B71FB79013BDBB236
:10035C005B00DAB2BB79013BDBB2DB00DBB21946E6
:10036C001046FFF7A3FF0023FB730EE07B79A3F18C
:10037C002002FB7B1B4912010A4413441B781846CC
:10038C00FFF77DFFFB7B0133FB73FB7B072BEDD969
:10039C00FB795B00DBB2013BDAB2BB79013BDBB230
:1003AC00DB00DBB219461046FFF780FF0023FB731E
:1003BC000FE07B79A3F12002FB7B08330949120182
:1003CC000A4413441B781846FFF759FFFB7B013393
:1003DC00FB73FB7B072BECD900BF00BF1037BD466E
:1003EC0080BD00BFCC28000880B485B000AF786019
:1003FC0039600123FB6004E0FB687A6802FB03F3BD
:10040C00FB603B685A1E3A60002BF5D1FB6818461E
:10041C001437BD4680BC704790B585B000AF3A60CC
:10042C001A460346FB710B46BB7113467B710023C6
:10043C00FB7323E0BA79FB7B1344DCB27A79FB7B48
:10044C00D31A013B19460A20FFF7CEFF02463B6840
:10045C00B3FBF2F10E4BA3FB0123DA0813469B000E
:10046C0013445B00CA1AD3B23033DAB2FB7921469B
:10047C001846FFF761FFFB7B0133FB73FA7B7B793B
:10048C009A42D7D300BF00BF1437BD4690BD00BF02
:10049C00CDCCCCCC80B582B000AF00237B600CE01F
:1004AC0000233B6002E03B6801333B603B68B3F5E3
:1004BC007A7FF8D37B6801337B607B68B3F57A7FF6
:1004CC00EED3FFF73DFEAE20FFF7C2FED520FFF7BF
:1004DC00BFFE8020FFF7BCFEA820FFF7B9FE3F202F
:1004EC00FFF7B6FED320FFF7B3FE0020FFF7B0FEF8
:1004FC004020FFF7ADFEA120FFF7AAFEC820FFF7B2
:10050C00A7FEDA20FFF7A4FE1220FFF7A1FE812040
:10051C00FFF79EFECF20FFF79BFED920FFF798FE3A
:10052C00F120FFF795FEDB20FFF792FE3020FFF75E
:10053C008FFEA420FFF78CFEA620FFF789FE8D20EE
:10054C00FFF786FE1420FFF783FEAF20FFF780FE37
:10055C00FFF7CFFE00BF0837BD4680BD80B584B025
:10056C0000AF3B1D00221A605A609A602E4B2F4A36
:10057C001A602D4B4FF480729A602B4B00221A7329
:10058C00294B00221A75284B4FF46022DA61264B56
:10059C0000225A60244B04221A61234800F0E8FA26
:1005AC000346002B01D000F0C2F900237B6001232D
:1005BC00BB600523FB603B1D19461B4800F0A0FCEB
:1005CC000346002B01D000F0B2F901237B6002231B
:1005DC00BB603B1D1946144800F092FC0346002BEF
:1005EC0001D000F0A4F902237B600323BB603B1D08
:1005FC0019460D4800F084FC0346002B01D000F096
:10060C0096F903237B600423BB603B1D1946064807
:10061C0000F076FC0346002B01D000F088F900BFF7
:10062C001037BD4680BD00BF2800002000240140CB
:10063C0080B588B000AF786007F1100300221A6013
:10064C005A609A60DA607B681B68284A934249D1E9
:10065C00274B9B69264A43F400739361244B9B6997
:10066C0003F40073FB60FB68214B9B69204A43F049
:10067C00040393611E4B9B6903F00403BB60BB68CE
:10068C000F233B6103237B6107F1100319461948C3
:10069C0001F0DAF9184B194A1A60174B00225A600C
:1006AC00154B00229A60144B8022DA60124B4FF4E7
:1006BC0080721A61104B4FF480625A610E4B00220B
:1006CC009A610D4B0022DA610B4800F0CFFF034614
:1006DC00002B01D000F02BF97B68074A1A62064AFE
:1006EC007B68536200BF2037BD4680BD00240140AB
:1006FC000010024000080140580000200800024091
:10070C0080B582B000AF0C4B5B690B4A43F0010320
:10071C005361094B5B6903F001037B607B6800222A
:10072C0000210B2000F06BFF0B2000F084FF00BFBA
:10073C000837BD4680BD00BF0010024080B588B0B0
:10074C0000AF07F1100300221A605A609A60DA6059
:10075C001E4B9B691D4A43F0200393611B4B9B6905
:10076C0003F02003FB60FB68184B9B69174A43F0AE
:10077C0004039361154B9B6903F00403BB60BB68D6
:10078C00124B9B69114A43F0080393610F4B9B6911
:10079C0003F008037B607B6800224FF440710C4827
:1007AC0001F0D6FA4FF440733B6111237B610023B7
:1007BC00BB610223FB6107F110031946044801F0E9
:1007CC0043F900BF2037BD4680BD00BF001002407A
:1007DC00000C014080B582B000AF78607B68134A92
:1007EC0093421FD1124B1B881A460523012101206D
:1007FC00FFF712FE0E4B5B881A46052301210220DF
:10080C00FFF70AFE0A4B9B881A4605230121032099
:10081C00FFF702FE064BDB881A4605230121042054
:10082C00FFF7FAFD00BF0837BD4680BD2800002049
:10083C009C00002080B500AF00F014F900F01CF80B
:10084C00FFF77CFFFFF75CFFFFF788FEFFF722FE48
:10085C00074800F04FFDFFF74CFD04220549044802
:10086C0000F05EFA4FF47A7000F05EF900BFF4E726
:10087C00280000209C00002080B594B000AF07F148
:10088C00280328220021184601F0E2FF07F1140387
:10089C0000221A605A609A60DA601A613B1D0022CD
:1008AC001A605A609A60DA600123BB624FF480339D
:1008BC00FB6200233B630123BB6302237B644FF485
:1008CC008033BB644FF4E013FB6407F12803184634
:1008DC0001F056FA0346002B01D000F028F80F2344
:1008EC007B610223BB610023FB614FF480633B629D
:1008FC0000237B6207F114030221184601F0C2FCAD
:10090C000346002B01D000F012F802237B604FF459
:10091C000043FB603B1D184601F02EFE0346002BE6
:10092C0001D000F004F800BF5037BD4680BD80B444
:10093C0000AF72B600BF00BFFDE7000080B485B009
:10094C0000AF154B9B69144A43F001039361124BA2
:10095C009B6903F00103BB60BB680F4BDB690E4A5C
:10096C0043F08053D3610C4BDB6903F080537B6005
:10097C007B680A4B5B68FB60FB6823F0E063FB6001
:10098C00FB6843F00073FB60044AFB68536000BFD4
:10099C001437BD4680BC7047001002400000014077
:1009AC0080B400AF00BFFDE780B400AF00BFFDE72F
:1009BC0080B400AF00BFFDE780B400AF00BFFDE71F
:1009CC0080B400AF00BFFDE780B400AF00BFBD46F0
:1009DC0080BC704780B400AF00BFBD4680BC704780
:1009EC0080B400AF00BFBD4680BC704780B500AF7F
:1009FC0000F07EF800BF80BD80B500AF024800F06B
:100A0C00EFFE00BF80BD00BF5800002080B400AFD7
:100A1C0000BFBD4680BC7047FFF7F8FF0B480C4980
:100A2C000C4A002302E0D458C4500433C4188C423E
:100A3C00F9D3094A094C002301E013600432A242A5
:100A4C00FBD301F00DFFFFF7F5FE7047000000200F
:100A5C000C000020042F00080C000020A80000202F
:100A6C00FEE7000080B500AF084B1B68074A43F057
:100A7C0010031360032000F0B7FD0F2000F008F8FE
:100A8C00FFF75CFF0023184680BD00BF002002402A
:100A9C0080B582B000AF7860124B1A68124B1B788D
:100AAC0019464FF47A73B3FBF1F3B2FBF3F3184628
:100ABC0000F0CFFD0346002B01D001230EE07B6834
:100ACC000F2B0AD8002279684FF0FF3000F097FD09
:100ADC00064A7B681360002300E0012318460837A0
:100AEC00BD4680BD0000002008000020040000204E
:100AFC0080B400AF054B1B781A46054B1B6813449A
:100B0C00034A136000BFBD4680BC7047080000203C
:100B1C00A400002080B400AF024B1B681846BD46F1
:100B2C0080BC7047A400002080B584B000AF786012
:100B3C00FFF7F0FFB8607B68FB60FB68B3F1FF3F29
:100B4C0005D00A4B1B781A46FB681344FB6000BFA8
:100B5C00FFF7E0FF0246BB68D31AFA689A42F7D84F
:100B6C0000BF00BF1037BD4680BD00BF080000208D
:100B7C0080B586B000AF78600023FB7500233B6125
:100B8C000023BB600023FB607B68002B01D1012399
:100B9C00BEE07B689B68002B7B689B6A002B09D1AD
:100BAC007B680022DA627B68002283F82420786854
:100BBC00FFF73EFD786800F0F5FA0346FB757B689D
:100BCC009B6A03F01003002B40F09980FB7D002BF7
:100BDC0040F095807B689B6A23F4885323F00203D2
:100BEC0043F002027B689A627B685A687B68DB6917
:100BFC001A437B681B7B5B001343BA681343BB60CF
:100C0C007B689B68B3F5807F03D07B689B68012B66
:100C1C0002D14FF4807300E000233A6913433B6127
:100C2C007B681B7D012B19D17B681B7B002B09D1A9
:100C3C007B689B69013B5A033B69134343F4006394
:100C4C003B610BE07B689B6A43F020027B689A62F5
:100C5C007B68DB6A43F001027B68DA627B681B68A5
:100C6C005B6823F469417B681B683A690A435A60E4
:100C7C007B681B689A68284B13407A681268B968BD
:100C8C000B4393607B689B68B3F5807F03D07B68D4
:100C9C009B68012B04D17B681B69013B1B05FB6026
:100CAC007B681B68DB6A23F470017B681B68FA683D
:100CBC000A43DA627B681B689A68184B1340BA685F
:100CCC009A420BD17B680022DA627B689B6A23F024
:100CDC00030343F001027B689A6218E07B689B6A0D
:100CEC0023F0120343F010027B689A627B68DB6A84
:100CFC0043F001027B68DA620123FB7507E07B6835
:100D0C009B6A43F010027B689A620123FB75FB7DA2
:100D1C0018461837BD4680BDFDF7E1FFFE0E1FFFDC
:100D2C0080B586B000AFF860B9607A600023FB75BF
:100D3C00FB681B68644A934204D0FB681B68634AD7
:100D4C00934206D1604B5B6803F47023002B40F098
:100D5C00B380FB6893F82430012B01D10223AEE061
:100D6C00FB68012283F82420F86800F0C1F90346DF
:100D7C00FB75FB7D002B40F09A80FB689B6A23F48B
:100D8C00706323F0010343F48072FB689A62FB6882
:100D9C001B684E4A934205D14B4B5B6803F470239E
:100DAC00002B15D1FB689B6A23F48012FB689A62B6
:100DBC00FB681B685B6803F48063002B26D0FB6820
:100DCC009B6A23F4405343F48052FB689A621DE003
:100DDC00FB689B6A43F48012FB689A62FB681B6891
:100DEC00394A934204D0FB681B68384A93420DD1B0
:100DFC00354B5B6803F48063002B07D0FB689B6A60
:100E0C0023F4405343F48052FB689A62FB689B6A5C
:100E1C0003F48053002B06D0FB68DB6A23F0060238
:100E2C00FB68DA6202E0FB680022DA62FB680022EF
:100E3C0083F82420FB681B6A254A9A62FB681B6AAC
:100E4C00244ADA62FB681B6A234A1A63FB681B6834
:100E5C006FF002021A60FB681B689A68FB681B68DB
:100E6C0042F480729A60FB68186AFB681B684C330A
:100E7C001946BA687B6800F053FCFB681B689B68DA
:100E8C0003F46023B3F5602F08D1FB681B689A68E4
:100E9C00FB681B6842F4A0029A600FE0FB681B68B9
:100EAC009A68FB681B6842F480129A6006E0FB6843
:100EBC00002283F8242001E00123FB75FB7D1846FA
:100ECC001837BD4680BD00BF0024014000280140FA
:100EDC0033120008AF120008CB12000880B483B0A4
:100EEC0000AF786000BF0C37BD4680BC704780B443
:100EFC0083B000AF786000BF0C37BD4680BC704734
:100F0C0080B485B000AF786039600023FB73002398
:100F1C00BB607B6893F82430012B01D10223DCE009
:100F2C007B68012283F824203B685B68062B1CD865
:100F3C007B681B68596B3B685A6813469B001344CB
:100F4C00053B1F2202FA03F3DB4319403B68186888
:100F5C003B685A6813469B001344053B00FA03F2A6
:100F6C007B681B680A435A633CE03B685B680C2B4C
:100F7C001CD87B681B68196B3B685A6813469B002E
:100F8C001344233B1F2202FA03F3DB4319403B6853
:100F9C0018683B685A6813469B001344233B00FABD
:100FAC0003F27B681B680A431A631BE07B681B68AF
:100FBC00D96A3B685A6813469B001344413B1F2275
:100FCC0002FA03F3DB4319403B6818683B685A6824
:100FDC0013469B001344413B00FA03F27B681B68E9
:100FEC000A43DA623B681B68092B1CD97B681B68B7
:100FFC00D9683B681A6813465B0013441E3B0722F2
:10100C0002FA03F3DB4319403B6898683B681A68A3
:10101C0013465B0013441E3B00FA03F27B681B680B
:10102C000A43DA6019E07B681B6819693B681A6827
:10103C0013465B001344072202FA03F3DB43194007
:10104C003B6898683B681A6813465B00134400FAC7
:10105C0003F27B681B680A431A613B681B68102B00
:10106C0003D03B681B68112B32D17B681B681D4A6F
:10107C00934225D17B681B689B6803F40003002B0B
:10108C0026D17B681B689A687B681B6842F4000257
:10109C009A603B681B68102B1AD1134B1B68134AC0
:1010AC00A2FB03239A0C13469B0013445B00BB600A
:1010BC0002E0BB68013BBB60BB68002BF9D107E0C9
:1010CC007B689B6A43F020027B689A620123FB7366
:1010DC007B68002283F82420FB7B18461437BD461E
:1010EC0080BC7047002401400000002083DE1B43BD
:1010FC0080B584B000AF78600023FB600023BB6038
:10110C007B681B689B6803F00103012B40D07B6854
:10111C001B689A687B681B6842F001029A601F4B3F
:10112C001B681F4AA2FB03239B0CBB6002E0BB683D
:10113C00013BBB60BB68002BF9D1FFF7EBFCF860FF
:10114C001FE0FFF7E7FC0246FB68D31A022B18D905
:10115C007B681B689B6803F00103012B11D07B6833
:10116C009B6A43F010027B689A627B68DB6A43F0EF
:10117C0001027B68DA627B68002283F82420012359
:10118C0007E07B681B689B6803F00103012BD8D137
:10119C00002318461037BD4680BD00BF000000205C
:1011AC0083DE1B4380B584B000AF78600023FB6006
:1011BC007B681B689B6803F00103012B2ED17B68B5
:1011CC001B689A687B681B6822F001029A60FFF723
:1011DC00A1FCF8601BE0FFF79DFC0246FB68D31AEC
:1011EC00022B14D97B681B689B6803F00103012B4D
:1011FC000DD17B689B6A43F010027B689A627B6816
:10120C00DB6A43F001027B68DA62012307E07B684A
:10121C001B689B6803F00103012BDCD000231846EC
:10122C001037BD4680BD80B584B000AF78607B6858
:10123C005B6AFB60FB689B6A03F05003002B27D1B1
:10124C00FB689B6A43F40072FB689A62FB681B683C
:10125C009B6803F46023B3F5602F15D1FB681B7BEF
:10126C00002B11D1FB689B6A23F48072FB689A6295
:10127C00FB689B6A03F48053002B05D1FB689B6AC7
:10128C0043F00102FB689A62F868FFF7A3FA04E0E6
:10129C00FB681B6A1B6B7868984700BF1037BD460C
:1012AC0080BD80B584B000AF78607B685B6AFB6002
:1012BC00F868FFF713FE00BF1037BD4680BD80B540
:1012CC0084B000AF78607B685B6AFB60FB689B6AEC
:1012DC0043F04002FB689A62FB68DB6A43F004024D
:1012EC00FB68DA62F868FFF702FE00BF1037BD46F4
:1012FC0080BD000090B587B000AF78600023FB750F
:10130C000023FB607B6893F82430012B01D102236E
:10131C0097E07B68012283F824207868FFF742FF6E
:10132C000346FB757868FFF7E3FE0346FB75FB7D10
:10133C00002B40F081807B689B6A23F4885323F058
:10134C00020343F002027B689A62404B1C68022045
:10135C0001F0C8F90346B4FBF3F35B00FB6002E059
:10136C00FB68013BFB60FB68002BF9D17B681B68B9
:10137C009A687B681B6842F008029A60FFF7CAFB08
:10138C0038611BE0FFF7C6FB02463B69D31A0A2BF8
:10139C0014D97B681B689B6803F00803002B0DD0E5
:1013AC007B689B6A23F0120343F010027B689A62FD
:1013BC007B68002283F82420012342E07B681B68B1
:1013CC009B6803F00803002BDCD17B681B689A68D0
:1013DC007B681B6842F004029A60FFF79BFB386144
:1013EC001BE0FFF797FB02463B69D31A0A2B14D973
:1013FC007B681B689B6803F00403002B0DD07B6893
:10140C009B6A23F0120343F010027B689A627B689C
:10141C00002283F82420012313E07B681B689B685F
:10142C0003F00403002BDCD17B689B6A23F00303DD
:10143C0043F001027B689A627B68002283F82420C7
:10144C00FB7D18461C37BD4690BD00BF0000002038
:10145C0080B485B000AF78607B6803F00703FB6055
:10146C000C4BDB68BB60BA684FF6FF031340BB60E4
:10147C00FB681A02BB68134343F0BF6343F40033A9
:10148C00BB60044ABB68D36000BF1437BD4680BC48
:10149C00704700BF00ED00E080B400AF044BDB6888
:1014AC001B0A03F007031846BD4680BC704700BFFB
:1014BC0000ED00E080B483B000AF0346FB7197F9F8
:1014CC000730002B0BDBFB7903F01F02064997F961
:1014DC0007305B09012000FA02F241F8232000BF1B
:1014EC000C37BD4680BC704700E100E080B483B08F
:1014FC0000AF03463960FB7197F90730002B0ADB0C
:10150C003B68DAB20C4997F907301201D2B20B449E
:10151C0083F800230AE03B68DAB20849FB7903F050
:10152C000F03043B1201D2B20B441A7600BF0C37E6
:10153C00BD4680BC704700BF00E100E000ED00E05C
:10154C0080B489B000AFF860B9607A60FB6803F0D2
:10155C000703FB61FB69C3F10703042B28BF0423BA
:10156C00BB61FB690433062B02D9FB69033B00E02A
:10157C0000237B614FF0FF32BB6902FA03F3DA43BD
:10158C00BB681A407B699A404FF0FF317B6901FAC6
:10159C0003F3D9437B680B40134318462437BD46ED
:1015AC0080BC704780B582B000AF78607B68013B2F
:1015BC00B3F1807F01D301230FE00A4A7B68013B22
:1015CC0053600F214FF0FF30FFF790FF054B0022C7
:1015DC009A60044B07221A60002318460837BD4650
:1015EC0080BD00BF10E000E080B582B000AF786035
:1015FC007868FFF72DFF00BF0837BD4680BD80B56A
:10160C0086B000AF0346B9607A60FB7300237B6140
:10161C00FFF742FF78617A68B9687869FFF790FF45
:10162C00024697F90F3011461846FFF75FFF00BFCF
:10163C001837BD4680BD80B582B000AF0346FB7144
:10164C0097F907301846FFF735FF00BF0837BD463E
:10165C0080BD80B582B000AF78607868FFF7A2FFDC
:10166C00034618460837BD4680BD000080B485B0DF
:10167C0000AF78600023FB607B68002B01D1012355
:10168C0043E07B681B681A46224B1344224AA2FB98
:10169C0003231B099A007B681A647B681F4ADA6370
:1016AC007B68022283F821207B681B681B68FB6027
:1016BC00FB6823F47F5323F03003FB607B685A688C
:1016CC007B689B681A437B68DB681A437B681B69E1
:1016DC001A437B685B691A437B689B691A437B6876
:1016EC00DB691343FA681343FB607B681B68FA6879
:1016FC001A607B6800229A637B68012283F82120A0
:10170C007B68002283F82020002318461437BD463E
:10171C0080BC7047F8FFFDBFCDCCCCCC00000240A4
:10172C0080B586B000AFF860B9607A603B6000238A
:10173C00FB75FB6893F82030012B01D102234BE0A1
:10174C00FB68012283F82020FB6893F82130DBB280
:10175C00012B3AD1FB68022283F82120FB6800227E
:10176C009A63FB681B681A68FB681B6822F001020D
:10177C001A603B687A68B968F86800F037F9FB685A
:10178C00DB6A002B08D0FB681B681A68FB681B68B7
:10179C0042F00E021A600FE0FB681B681A68FB68C7
:1017AC001B6822F004021A60FB681B681A68FB684D
:1017BC001B6842F00A021A60FB681B681A68FB6817
:1017CC001B6842F001021A6005E0FB68002283F8F6
:1017DC0020200223FB75FB7D18461837BD4680BDC3
:1017EC0080B584B000AF78607B68DB6B1B68FB60F6
:1017FC007B681B681B68BB607B681B6C04229A406F
:10180C00FB681340002B4FD0BB6803F00403002B84
:10181C004AD07B681B681B6803F02003002B07D1A0
:10182C007B681B681A687B681B6822F004021A60CC
:10183C007B681B68664A934229D07B681B68654AA3
:10184C00934222D07B681B68634A93421AD07B6810
:10185C001B68624A934212D07B681B68604A9342B1
:10186C000AD07B681B685F4A934202D14FF4800315
:10187C000EE04FF080630BE04FF4802308E04FF450
:10188C00804305E04FF4806302E0402300E0042332
:10189C00554A53607B68DB6A002B00F094807B68B0
:1018AC00DB6A786898478EE07B681B6C02229A4052
:1018BC00FB681340002B56D0BB6803F00203002BCF
:1018CC0051D07B681B681B6803F02003002B0BD1E5
:1018DC007B681B681A687B681B6822F00A021A6016
:1018EC007B68012283F821207B681B68384A93426D
:1018FC0029D07B681B68374A934222D07B681B68CF
:10190C00354A93421AD07B681B68344A934212D0F2
:10191C007B681B68324A93420AD07B681B68314A49
:10192C00934202D14FF400130EE04FF000730BE022
:10193C004FF4003308E04FF4005305E04FF400730C
:10194C0002E0202300E00223274A53607B68002238
:10195C0083F820207B689B6A002B34D07B689B6AC1
:10196C00786898472FE07B681B6C08229A40FB68CC
:10197C001340002B28D0BB6803F00803002B23D0A6
:10198C007B681B681A687B681B6822F00E021A6061
:10199C007B681A6C7B68DB6B012101FA02F25A60DE
:1019AC007B6801229A637B68012283F821207B6883
:1019BC00002283F820207B681B6B002B04D07B68F3
:1019CC001B6B7868984700BF00BF1037BD4680BDC1
:1019DC00080002401C00024030000240440002405B
:1019EC00580002406C0002400000024080B485B0F8
:1019FC0000AFF860B9607A603B60FB681A6CFB68FA
:101A0C00DB6B012101FA02F25A60FB681B683A6831
:101A1C005A60FB685B68102B08D1FB681B687A68FE
:101A2C009A60FB681B68BA68DA6007E0FB681B68A1
:101A3C00BA689A60FB681B687A68DA6000BF143772
:101A4C00BD4680BC7047000080B48BB000AF78609E
:101A5C00396000237B6200233B6269E101227B6ACF
:101A6C0002FA03F3FB613B681B68FA691340BB6124
:101A7C00BA69FB699A4240F058813B685B689A4AA4
:101A8C0093425ED0984A934275D8984A934258D064
:101A9C00964A93426FD8964A934252D0944A9342B4
:101AAC0069D8944A93424CD0924A934263D8924A52
:101ABC00934246D0904A93425DD8122B2AD8122BCF
:101ACC0059D801A252F823F04F1B0008291B00081B
:101ADC003B1B00087D1B0008831B0008831B0008B0
:101AEC00831B0008831B0008831B0008831B000852
:101AFC00831B0008831B0008831B0008831B000842
:101B0C00831B0008831B0008831B0008311B000883
:101B1C00451B0008794A934213D02CE03B68DB68E4
:101B2C003B6229E03B68DB6804333B6224E03B68A2
:101B3C00DB6808333B621FE03B68DB680C333B62BD
:101B4C001AE03B689B68002B02D104233B6213E034
:101B5C003B689B68012B05D108233B627B68FA69C3
:101B6C001A6109E008233B627B68FA695A6103E059
:101B7C0000233B6200E000BFBB69FF2B01D87B68F0
:101B8C0001E07B6804337B61BB69FF2B02D87B6A65
:101B9C009B0002E07B6A083B9B003B617B691A68F7
:101BAC000F213B6901FA03F3DB431A40396A3B69A5
:101BBC0001FA03F31A437B691A603B685B6803F014
:101BCC008053002B00F0B1804D4B9B694C4A43F085
:101BDC00010393614A4B9B6903F00103BB60BB6833
:101BEC00484A7B6A9B08023352F82330FB607B6ABD
:101BFC0003F003039B000F2202FA03F3DB43FA68A2
:101C0C001340FB607B68404A934213D07B683F4A89
:101C1C0093420DD07B683E4A934207D07B683D4A85
:101C2C00934201D1032306E0042304E0022302E0E3
:101C3C00012300E000237A6A02F003029200934031
:101C4C00FA681343FB602F497B6A9B080233FA68DE
:101C5C0041F823203B685B6803F48013002B06D00B
:101C6C002D4B9A682C49BB6913438B6006E02A4BB9
:101C7C009A68BB69DB43284913408B603B685B68FF
:101C8C0003F40013002B06D0234BDA682249BB69FE
:101C9C001343CB6006E0204BDA68BB69DB431E497B
:101CAC001340CB603B685B6803F40033002B06D019
:101CBC00194B5A681849BB6913434B6006E0164B25
:101CCC005A68BB69DB43144913404B603B685B6843
:101CDC0003F48033002B21D00F4B1A680E49BB69DB
:101CEC0013430B6021E000BF0000321000003110E4
:101CFC000000221000002110000012100000111032
:101D0C00001002400000014000080140000C01409E
:101D1C000010014000140140000401400B4B1A68F4
:101D2C00BB69DB43094913400B607B6A01337B625F
:101D3C003B681A687B6A22FA03F3002B7FF48EAEA1
:101D4C0000BF00BF2C37BD4680BC7047000401406B
:101D5C0080B483B000AF78600B467B8013467B70F9
:101D6C007B78002B03D07A887B681A6103E07B8830
:101D7C001A047B681A6100BF0C37BD4680BC7047E3
:101D8C0080B586B000AF78607B68002B01D1012351
:101D9C0072E27B681B6803F00103002B00F0878064
:101DAC00924B5B6803F00C03042B0CD08F4B5B68DD
:101DBC0003F00C03082B12D18C4B5B6803F48033BB
:101DCC00B3F5803F0BD1894B1B6803F40033002B18
:101DDC006CD07B685B68002B68D101234CE27B687C
:101DEC005B68B3F5803F06D1804B1B687F4A43F498
:101DFC00803313602EE07B685B68002B0CD17B4B2F
:101E0C001B687A4A23F480331360784B1B68774A3B
:101E1C0023F4802313601DE07B685B68B3F5A02F6F
:101E2C000CD1724B1B68714A43F4802313606F4BC7
:101E3C001B686E4A43F4803313600BE06B4B1B68DA
:101E4C006A4A23F480331360684B1B68674A23F497
:101E5C00802313607B685B68002B13D0FEF75AFE5F
:101E6C00386108E0FEF756FE02463B69D31A642B34
:101E7C0001D9032300E25D4B1B6803F40033002BF4
:101E8C00F0D014E0FEF746FE386108E0FEF742FEA3
:101E9C0002463B69D31A642B01D90323ECE1534B63
:101EAC001B6803F40033002BF0D100E000BF7B680B
:101EBC001B6803F00203002B63D04C4B5B6803F0F0
:101ECC000C03002B0BD0494B5B6803F00C03082B65
:101EDC001CD1464B5B6803F48033002B16D1434B6B
:101EEC001B6803F00203002B05D07B681B69012BD8
:101EFC0001D00123C0E13D4B1B6823F0F8027B6845
:101F0C005B69DB00394913430B603AE07B681B6962
:101F1C00002B20D0364B01221A60FEF7FBFD3861F6
:101F2C0008E0FEF7F7FD02463B69D31A022B01D9F4
:101F3C000323A1E12D4B1B6803F00203002BF0D00F
:101F4C002A4B1B6823F0F8027B685B69DB0027498E
:101F5C0013430B6015E0264B00221A60FEF7DAFDE6
:101F6C00386108E0FEF7D6FD02463B69D31A022B16
:101F7C0001D9032380E11D4B1B6803F00203002BE6
:101F8C00F0D17B681B6803F00803002B3AD07B6808
:101F9C009B69002B19D0174B01221A60FEF7BAFD72
:101FAC00386108E0FEF7B6FD02463B69D31A022BF6
:101FBC0001D9032360E10D4B5B6A03F00203002B94
:101FCC00F0D0012000F0BAFA1CE00A4B00221A6093
:101FDC00FEF7A0FD38610FE0FEF79CFD02463B6961
:101FEC00D31A022B08D9032346E100BF001002408C
:101FFC000000424280044242924B5B6A03F00203AF
:10200C00002BE9D17B681B6803F00403002B00F064
:10201C00A6800023FB758B4BDB6903F08053002BF0
:10202C000DD1884BDB69874A43F08053D361854BD4
:10203C00DB6903F08053BB60BB680123FB75824BEB
:10204C001B6803F48073002B18D17F4B1B687E4AEE
:10205C0043F480731360FEF75DFD386108E0FEF712
:10206C0059FD02463B69D31A642B01D9032303E1C2
:10207C00754B1B6803F48073002BF0D07B68DB6816
:10208C00012B06D16F4B1B6A6E4A43F0010313629E
:10209C002DE07B68DB68002B0CD16A4B1B6A694A0C
:1020AC0023F001031362674B1B6A664A23F0040397
:1020BC0013621CE07B68DB68052B0CD1614B1B6A3F
:1020CC00604A43F0040313625E4B1B6A5D4A43F0A3
:1020DC00010313620BE05B4B1B6A5A4A23F00103AA
:1020EC001362584B1B6A574A23F0040313627B6834
:1020FC00DB68002B15D0FEF70DFD38610AE0FEF70A
:10210C0009FD02463B69D31A41F28832934201D948
:10211C000323B1E04B4B1B6A03F00203002BEED000
:10212C0014E0FEF7F7FC38610AE0FEF7F3FC024618
:10213C003B69D31A41F28832934201D903239BE0C5
:10214C00404B1B6A03F00203002BEED1FB7D012BED
:10215C0005D13C4BDB693B4A23F08053D3617B6850
:10216C00DB69002B00F08780364B5B6803F00C03B7
:10217C00082B61D07B68DB69022B46D1334B0022E4
:10218C001A60FEF7C7FC386108E0FEF7C3FC024694
:10219C003B69D31A022B01D903236DE0294B1B6831
:1021AC0003F00073002BF0D17B681B6AB3F5803F02
:1021BC0008D1244B5B6823F400327B689B6821496F
:1021CC0013434B601F4B5B6823F474127B68196AD2
:1021DC007B685B6A0B431B4913434B601B4B01220F
:1021EC001A60FEF797FC386108E0FEF793FC024694
:1021FC003B69D31A022B01D903233DE0114B1B6819
:10220C0003F00073002BF0D035E0104B00221A6065
:10221C00FEF780FC386108E0FEF77CFC02463B6967
:10222C00D31A022B01D9032326E0064B1B6803F0BB
:10223C000073002BF0D11EE07B68DB69012B07D10A
:10224C00012319E00010024000700040600042427F
:10225C000B4B5B68FB60FB6803F480327B681B6A8A
:10226C009A4206D1FB6803F470127B685B6A9A424F
:10227C0001D0012300E0002318461837BD4680BD6D
:10228C000010024080B584B000AF786039607B6884
:10229C00002B01D10123D0E06A4B1B6803F007032C
:1022AC003A689A4210D9674B1B6823F007026549BC
:1022BC003B6813430B60634B1B6803F007033A68DE
:1022CC009A4201D00123B8E07B681B6803F002033B
:1022DC00002B20D07B681B6803F00403002B05D077
:1022EC00594B5B68584A43F4E06353607B681B6846
:1022FC0003F00803002B05D0534B5B68524A43F4A0
:10230C0060535360504B5B6823F0F0027B689B6812
:10231C004D4913434B607B681B6803F00103002B92
:10232C0040D07B685B68012B07D1474B1B6803F4DB
:10233C000033002B15D101237FE07B685B68022BF7
:10234C0007D1414B1B6803F00073002B09D101230B
:10235C0073E03D4B1B6803F00203002B01D10123FA
:10236C006BE0394B5B6823F003027B685B68364992
:10237C0013434B60FEF7CEFBF8600AE0FEF7CAFB96
:10238C000246FB68D31A41F28832934201D90323E7
:10239C0053E02D4B5B6803F00C027B685B689B0081
:1023AC009A42EBD1274B1B6803F007033A689A4219
:1023BC0010D2244B1B6823F0070222493B681343BD
:1023CC000B60204B1B6803F007033A689A4201D05C
:1023DC00012332E07B681B6803F00403002B08D058
:1023EC00194B5B6823F4E0627B68DB681649134386
:1023FC004B607B681B6803F00803002B09D0124B61
:10240C005B6823F460527B681B69DB000E49134345
:10241C004B6000F021F802460B4B5B681B0903F084
:10242C000F030A49CB5C22FA03F3094A1360094BE8
:10243C001B681846FEF72CFB002318461037BD46C8
:10244C0080BD00BF0020024000100240BC2E0008DE
:10245C00000000200400002080B487B000AF0023EF
:10246C00FB600023BB6000237B6100237B600023A7
:10247C003B611E4B5B68FB60FB6803F00C03042B99
:10248C0002D0082B03D027E0194B3B6127E0FB68F7
:10249C009B0C03F00F03174AD35C7B60FB6803F4BF
:1024AC008033002B10D0114B5B685B0C03F00103E5
:1024BC00114AD35CBB607B680D4A03FB02F2BB681C
:1024CC00B2FBF3F37B6104E07B680C4A02FB03F381
:1024DC007B617B693B6102E0054B3B6100BF3B6963
:1024EC0018461C37BD4680BC704700BF0010024028
:1024FC0000127A00D42E0008E42E000800093D00DA
:10250C0080B400AF024B1B681846BD4680BC7047B8
:10251C000000002080B500AFFFF7F2FF0246054B2C
:10252C005B68DB0A03F007030349CB5C22FA03F375
:10253C00184680BD00100240CC2E000880B485B037
:10254C0000AF78600A4B1B680A4AA2FB03235B0AA4
:10255C007A6802FB03F3FB6000BFFB685A1EFA604B
:10256C00002BF9D100BF00BF1437BD4680BC7047AB
:10257C0000000020D34D621080B586B000AF7860AB
:10258C0000233B610023FB607B681B6803F00103A5
:10259C00002B7DD00023FB754F4BDB6903F0805380
:1025AC00002B0DD14C4BDB694B4A43F08053D3616C
:1025BC00494BDB6903F08053BB60BB680123FB759F
:1025CC00464B1B6803F48073002B18D1434B1B68DC
:1025DC00424A43F480731360FEF79CFA386108E0BA
:1025EC00FEF798FA02463B69D31A642B01D90323F0
:1025FC006DE03A4B1B6803F48073002BF0D0364B24
:10260C001B6A03F44073FB60FB68002B2ED07B68C5
:10261C005B6803F44073FA689A4227D02E4B1B6A0E
:10262C0023F44073FB602E4B01221A602C4B0022CA
:10263C001A60294AFB681362FB6803F00103002B44
:10264C0014D0FEF767FA38610AE0FEF763FA024627
:10265C003B69D31A41F28832934201D9032336E005
:10266C001D4B1B6A03F00203002BEED01A4B1B6AA6
:10267C0023F440727B685B68174913430B62FB7D44
:10268C00012B05D1144BDB69134A23F08053D36122
:10269C007B681B6803F00203002B08D00E4B5B68B1
:1026AC0023F440427B689B680B4913434B607B6867
:1026BC001B6803F01003002B08D0074B5B6823F456
:1026CC0080027B68DB68044913434B600023184687
:1026DC001837BD4680BD00BF00100240007000409E
:1026EC004004424280B588B000AF786000237B6123
:1026FC000023FB6100233B610023FB600023BB61D3
:10270C007B68102B0AD07B68102B00F28A807B68C8
:10271C00012B45D07B68022B75D082E0464B5B6861
:10272C00FB60454B1B6803F08073002B7BD0FB6870
:10273C009B0C03F00F03414AD35C3B61FB6803F431
:10274C008033002B15D03C4B5B685B0C03F0010312
:10275C003B4AD35C7B61FB6803F48033002B0DD0C8
:10276C00384A7B69B2FBF3F23B6902FB03F3FB6172
:10277C0004E03B69344A02FB03F3FB612E4B5B68BC
:10278C0003F48003B3F5800F02D1FB69BB614AE00F
:10279C00FB695B002D4AA2FB03235B08BB6142E093
:1027AC00254B1B6AFB60FB6803F44073B3F5807F19
:1027BC0008D1FB6803F00203002B03D04FF4004355
:1027CC00BB611FE0FB6803F44073B3F5007F09D1D4
:1027DC00194B5B6A03F00203002B03D049F640430C
:1027EC00BB610FE0FB6803F44073B3F5407F1CD171
:1027FC00114B1B6803F40033002B16D04FF224430B
:10280C00BB6112E011E0FFF785FE02460A4B5B68E4
:10281C009B0B03F0030301335B00B2FBF3F3BB61CF
:10282C0004E000BF02E000BF00E000BFBB69184637
:10283C002037BD4680BD00BF00100240E82E0008C6
:10284C00F82E000800127A0000093D00ABAAAAAAD3
:10285C0003460244934200D1704703F8011BF9E789
:10286C0070B500260C4D0D4C641BA410A64209D16A
:10287C0000F01AF800260A4D0A4C641BA410A6425C
:10288C0005D170BD55F8043B98470136EEE755F875
:10289C00043B98470136F2E7FC2E0008FC2E00089A
:1028AC00FC2E0008002F0008F8B500BFF8BC08BCCF
:1028BC009E467047F8B500BFF8BC08BC9E467047F2
:1028CC0000000000000000000000000000000000FC
:1028DC00000000F800000000000000333000000091
:1028EC0000100C06100C0600000000000000000098
:1028FC0040C07840C0784000043F04043F0404000A
:10290C00007088FC08300000001820FF211E000019
:10291C00F008F000E018000000211C031E211E002E
:10292C0000F00888700000001E21232419272110B4
:10293C0010160E0000000000000000000000000057
:10294C00000000E0180402000000000718204000FE
:10295C0000020418E00000000040201807000000EE
:10296C00404080F0804040000202010F0102020052
:10297C00000000F0000000000101011F0101010036
:10298C00000000000000000080B07000000000009B
:10299C000000000000000000000101010101010124
:1029AC0000000000000000000030300000000000BB
:1029BC000000000080601804006018060100000090
:1029CC0000E010080810E000000F102020100F008D
:1029DC00001010F8000000000020203F2020000014
:1029EC00007008080888700000302824222130006C
:1029FC0000300888884830000018202020110E0074
:102A0C000000C02010F8000000070424243F24001C
:102A1C0000F80888880808000019212020110E00F1
:102A2C0000E0108888180000000F112020110E0003
:102A3C0000380808C83808000000003F00000000FB
:102A4C000070880808887000001C222121221C00BC
:102A5C0000E010080810E0000000312222110F00E5
:102A6C00000000C0C000000000000030300000007A
:102A7C0000000080000000000000806000000000EA
:102A8C000000804020100800000102040810200003
:102A9C00404040404040400004040404040404004E
:102AAC0000081020408000000020100804020100E3
:102ABC00007048080808F0000000003036010000E3
:102ACC00C030C828E810E0000718272423140B0096
:102ADC000000C038E0000000203C23020227382010
:102AEC0008F8888888700000203F202020110E00F4
:102AFC00C0300808080838000718202020100800EB
:102B0C0008F808080810E000203F202020100F00D3
:102B1C0008F88888E8081000203F2020232018009F
:102B2C0008F88888E8081000203F20000300000007
:102B3C00C03008080838000007182020221E0200A8
:102B4C0008F808000008F808203F210101213F2067
:102B5C00000808F8080800000020203F2020000092
:102B6C0000000808F8080800C08080807F00000082
:102B7C0008F888C028180800203F200126382000BB
:102B8C0008F8080000000000203F20202020300022
:102B9C0008F8F800F8F80800203F003F003F20003C
:102BAC0008F830C00008F808203F200007183F0044
:102BBC00E01008080810E0000F10202020100F0073
:102BCC0008F808080808F000203F21010101000066
:102BDC00E01008080810E0000F18242438504F00AB
:102BEC0008F8888888887000203F2000030C30206B
:102BFC0000708808080838000038202121221C00A9
:102C0C00180808F8080818000000203F20000000F1
:102C1C0008F808000008F808001F202020201F00DA
:102C2C000878880000C83808000007380E0100003A
:102C3C00F80800F80008F800033C0700073C030004
:102C4C00081868808068180820302C03032C30206A
:102C5C000838C800C83808000000203F20000000D9
:102C6C0010080808C8380800203826212020180031
:102C7C00000000FE020202000000007F4040400005
:102C8C00000C30C000000000000000010638C0003D
:102C9C0000020202FE000000004040407F000000E5
:102CAC00000004020202040000000000000000000A
:102CBC000000000000000000808080808080808008
:102CCC0000020204000000000000000000000000F0
:102CDC0000008080808000000019242222223F20E6
:102CEC0008F8008080000000003F112020110E0029
:102CFC000000008080800000000E112020201100B8
:102D0C00000000808088F800000E112020103F2069
:102D1C000000808080800000001F222222221300ED
:102D2C00008080F0888888180020203F2020000038
:102D3C000000808080808000006B949494936000ED
:102D4C0008F8008080800000203F210000203F20F8
:102D5C0000809898000000000020203F20200000F8
:102D6C00000000809898000000C08080807F0000E8
:102D7C0008F8000080808000203F24022D302000C5
:102D8C00000808F8000000000020203F2020000070
:102D9C008080808080808000203F20003F20003F8A
:102DAC008080008080800000203F210000203F2098
:102DBC000000808080800000001F202020201F0049
:102DCC00808000808000000080FFA12020110E0078
:102DDC000000008080808000000E112020A0FF8069
:102DEC00808080008080800020203F212000010016
:102DFC00000080808080800000332424242419006B
:102E0C00008080E0808000000000001F2020000077
:102E1C008080000000808000001F202020103F20B8
:102E2C00808080000080808000010E300806010048
:102E3C0080800080008080800F300C030C300F00ED
:102E4C0000808000808080000020312E0E31200018
:102E5C00808080000080808080818E701806010048
:102E6C0000808080808080000021302C2221300066
:102E7C0000000000807C020200000000003F404087
:102E8C0000000000FF00000000000000FF00000038
:102E9C000002027C800000000040403F0000000067
:102EAC000006010102020404000000000000000002
:102EBC0000000000000000000102030406070809DE
:102ECC0000000000010203040203040506070809C0
:102EDC000A0B0C0D0E0F101001020000020304056A
:102EEC00060708090A0B0C0D0E0F1010010200004A
:042EFC003101000898
:042F00000D010008B7
:0C2F040000127A00100000000100000024
:0400000508000A25C0
:00000001FF
