:020000040800F2
:10000000005000202D080008850700088D07000813
:10001000950700089D070008A507000800000000DC
:10002000000000000000000000000000AD07000814
:10003000B907000800000000C5070008D107000844
:10004000750800087508000875080008750800089C
:10005000750800087508000875080008750800088C
:10006000750800087508000875080008750800087C
:10007000750800087508000875080008750800086C
:10008000750800087508000875080008750800085C
:10009000750800087508000875080008750800084C
:1000A000750800087508000875080008750800083C
:1000B000750800087508000875080008750800082C
:1000C000750800087508000875080008750800081C
:1000D000750800087508000875080008750800080C
:1000E000DD0700087508000875080008000000001A
:1000F0000000000000000000000000000000000000
:0C01000000000000000000005FF808F1A3
:10010C0010B5054C237833B9044B13B10448AFF345
:10011C0000800123237010BD0C00002000000000A3
:10012C00E816000808B5034B1BB103490348AFF3AD
:10013C00008008BD0000000010000020E816000838
:10014C0080B500AF00F030FA01224FF48071054801
:10015C0000F080FE01224FF40071024800F07AFE9C
:10016C0000BF80BD000C014080B500AF01224FF4F0
:10017C0000710B4800F06EFE01224FF480710848AC
:10018C0000F068FE00224FF40071054800F062FE9A
:10019C0000224FF48071024800F05CFE00BF80BD6D
:1001AC00000C014080B500AF00224FF400710848EC
:1001BC0000F050FE01224FF48071054800F04AFE19
:1001CC0001224FF40071024800F044FE00BF80BDD4
:1001DC00000C014080B584B000AF0346FB710023D6
:1001EC00FB731FE0FA79FB7B802141FA03F3134088
:1001FC00002B14BF01230023DBB21A464FF400710D
:10020C00124800F027FE01224FF480710F4800F0D5
:10021C0021FE00224FF480710C4800F01BFEFB7B8A
:10022C000133FB73FB7B072BDCD901224FF480716C
:10023C00064800F00FFE00224FF48071034800F0D6
:10024C0009FE00BF1037BD4680BD00BF000C014049
:10025C0080B582B000AF0346FB71FFF785FF7820B5
:10026C00FFF7B8FF0020FFF7B5FFFB791846FFF743
:10027C00B1FFFFF797FF00BF0837BD4680BD80B5C3
:10028C0082B000AF0346FB71FFF76EFF7820FFF7DB
:10029C00A1FF4020FFF79EFFFB791846FFF79AFF5E
:1002AC00FFF780FF00BF0837BD4680BD80B582B028
:1002BC0000AF03460A46FB711346BB71FB7963F032
:1002CC004F03DBB21846FFF7C3FFBB791B09DBB248
:1002DC0043F01003DBB21846FFF7BAFFBB7903F00B
:1002EC000F03DBB21846FFF7B3FF00BF0837BD465C
:1002FC0080BD80B582B000AF0023BB7114E0BB7928
:10030C0000211846FFF7D2FF0023FB7105E0002007
:10031C00FFF7B5FFFB790133FB7197F90730002B21
:10032C00F5DABB790133BB71BB79072BE7D900BF79
:10033C0000BF0837BD4680BD80B584B000AF034612
:10034C00FB710B46BB7113467B71FB79013BDBB236
:10035C005B00DAB2BB79013BDBB2DB00DBB21946E6
:10036C001046FFF7A3FF0023FB730EE07B79A3F18C
:10037C002002FB7B1B4912010A4413441B781846CC
:10038C00FFF77DFFFB7B0133FB73FB7B072BEDD969
:10039C00FB795B00DBB2013BDAB2BB79013BDBB230
:1003AC00DB00DBB219461046FFF780FF0023FB731E
:1003BC000FE07B79A3F12002FB7B08330949120182
:1003CC000A4413441B781846FFF759FFFB7B013393
:1003DC00FB73FB7B072BECD900BF00BF1037BD466E
:1003EC0080BD00BF0817000880B584B000AF03467D
:1003FC003A60FB710B46BB710023FB730EE0BA79BC
:10040C00FB7B1344D9B2FB7B3A6813441A78FB7913
:10041C001846FFF791FFFB7B0133FB73FB7B3A68BC
:10042C0013441B78002BEAD100BF00BF1037BD4628
:10043C0080BD80B485B000AF786039600123FB606B
:10044C0004E0FB687A6802FB03F3FB603B685A1E0E
:10045C003A60002BF5D1FB6818461437BD4680BCBA
:10046C007047000090B585B000AF3A601A4603465D
:10047C00FB710B46BB7113467B710023FB7323E0AE
:10048C00BA79FB7B1344DCB27A79FB7BD31A013B40
:10049C0019460A20FFF7CDFF02463B68B3FBF2F189
:1004AC000E4BA3FB0123DA0813469B0013445B009D
:1004BC00CA1AD3B23033DAB2FB7921461846FFF7A9
:1004CC003BFFFB7B0133FB73FA7B7B799A42D7D3DF
:1004DC0000BF00BF1437BD4690BD00BFCDCCCCCC07
:1004EC0080B582B000AF00237B600CE000233B6042
:1004FC0002E03B6801333B603B68B3F57A7FF8D38D
:10050C007B6801337B607B68B3F57A7FEED3FFF7B2
:10051C0017FEAE20FFF79CFED520FFF799FE80203A
:10052C00FFF796FEA820FFF793FE3F20FFF790FE03
:10053C00D320FFF78DFE0020FFF78AFE4020FFF747
:10054C0087FEA120FFF784FEC820FFF781FEDA208A
:10055C00FFF77EFE1220FFF77BFE8120FFF778FE6F
:10056C00CF20FFF775FED920FFF772FEF120FFF7C1
:10057C006FFEDB20FFF76CFE3020FFF769FEA42036
:10058C00FFF766FEA620FFF763FE8D20FFF760FEE7
:10059C001420FFF75DFEAF20FFF75AFEFFF7A9FE10
:1005AC0000BF0837BD4680BD80B586B000AF07F1EF
:1005BC00080300221A605A609A60DA60224B9B6929
:1005CC00214A43F0080393611F4B9B6903F0080316
:1005DC007B607B681C4B9B691B4A43F00403936153
:1005EC00194B9B6903F004033B603B6800224FF4FA
:1005FC004071164800F02EFC4FF48043BB60144B46
:10060C00FB6000233B6107F1080319460F4800F01B
:10061C009DFA4FF44073BB601123FB6000233B61D8
:10062C0002237B6107F108031946084800F08EFA93
:10063C0000220021282000F052FA282000F06BFA4A
:10064C0000BF1837BD4680BD00100240000C0140B1
:10065C000000211080B500AF00F008F900F018F888
:10066C00FFF7A2FFFFF73CFFFFF743FE074A01210C
:10067C000120FFF7B9FE00F0C3F802460523012163
:10068C000220FFF7EFFE00BFF5E700BF00170008E0
:10069C0080B590B000AF07F118032822002118464E
:1006AC0000F0F0FF3B1D00221A605A609A60DA607D
:1006BC001A610223BB610123BB621023FB6200237E
:1006CC007B6307F11803184600F0FEFB0346002B72
:1006DC0001D000F018F80F237B600023BB600023CF
:1006EC00FB6000233B6100237B613B1D002118460E
:1006FC0000F06CFE0346002B01D000F004F800BFA4
:10070C004037BD4680BD80B400AF72B600BF00BF9D
:10071C00FDE7000080B485B000AF154B9B69144A0F
:10072C0043F001039361124B9B6903F00103BB601F
:10073C00BB680F4BDB690E4A43F08053D3610C4B03
:10074C00DB6903F080537B607B680A4B5B68FB6062
:10075C00FB6823F0E063FB60FB6843F00073FB6015
:10076C00044AFB68536000BF1437BD4680BC704719
:10077C00001002400000014080B400AF00BFFDE754
:10078C0080B400AF00BFFDE780B400AF00BFFDE751
:10079C0080B400AF00BFFDE780B400AF00BFFDE741
:1007AC0080B400AF00BFBD4680BC704780B400AFC2
:1007BC0000BFBD4680BC704780B400AF00BFBD46D3
:1007CC0080BC704780B500AF00F096F800BF80BDCC
:1007DC0080B500AF084B5B6903F48043002B09D054
:1007EC004FF4804000F04EFB044B1B8801339AB24F
:1007FC00024B1A8000BF80BD00040140280000207D
:10080C0080B400AF024B1B881846BD4680BC7047B5
:10081C002800002080B400AF00BFBD4680BC7047EC
:10082C00FFF7F8FF0B480C490C4A002302E0D458A0
:10083C00C4500433C4188C42F9D3094A094C002320
:10084C0001E013600432A242FBD300F023FFFFF758
:10085C0001FF7047000000200C000020241D000840
:10086C000C00002030000020FEE7000080B500AF37
:10087C00084B1B68074A43F010031360032000F079
:10088C0023F90F2000F008F8FFF744FF0023184667
:10089C0080BD00BF0020024080B582B000AF786000
:1008AC00124B1A68124B1B7819464FF47A73B3FB30
:1008BC00F1F3B2FBF3F3184600F03BF90346002BBF
:1008CC0001D001230EE07B680F2B0AD80022796837
:1008DC004FF0FF3000F003F9064A7B6813600023E9
:1008EC0000E0012318460837BD4680BD00000020FB
:1008FC00080000200400002080B400AF054B1B78DA
:10090C001A46054B1B681344034A136000BFBD46CF
:10091C0080BC7047080000202C00002080B400AF81
:10092C00024B1B681846BD4680BC70472C0000204B
:10093C0080B485B000AF78607B6803F00703FB6080
:10094C000C4BDB68BB60BA684FF6FF031340BB600F
:10095C00FB681A02BB68134343F0BF6343F40033D4
:10096C00BB60044ABB68D36000BF1437BD4680BC73
:10097C00704700BF00ED00E080B400AF044BDB68B3
:10098C001B0A03F007031846BD4680BC704700BF26
:10099C0000ED00E080B483B000AF0346FB7197F923
:1009AC000730002B0BDBFB7903F01F02064997F98C
:1009BC0007305B09012000FA02F241F8232000BF46
:1009CC000C37BD4680BC704700E100E080B483B0BA
:1009DC0000AF03463960FB7197F90730002B0ADB37
:1009EC003B68DAB20C4997F907301201D2B20B44CA
:1009FC0083F800230AE03B68DAB20849FB7903F07C
:100A0C000F03043B1201D2B20B441A7600BF0C3711
:100A1C00BD4680BC704700BF00E100E000ED00E087
:100A2C0080B489B000AFF860B9607A60FB6803F0FD
:100A3C000703FB61FB69C3F10703042B28BF0423E5
:100A4C00BB61FB690433062B02D9FB69033B00E055
:100A5C0000237B614FF0FF32BB6902FA03F3DA43E8
:100A6C00BB681A407B699A404FF0FF317B6901FAF1
:100A7C0003F3D9437B680B40134318462437BD4618
:100A8C0080BC704780B582B000AF78607B68013B5A
:100A9C00B3F1807F01D301230FE00A4A7B68013B4D
:100AAC0053600F214FF0FF30FFF790FF054B0022F2
:100ABC009A60044B07221A60002318460837BD467B
:100ACC0080BD00BF10E000E080B582B000AF786060
:100ADC007868FFF72DFF00BF0837BD4680BD80B595
:100AEC0086B000AF0346B9607A60FB7300237B616C
:100AFC00FFF742FF78617A68B9687869FFF790FF71
:100B0C00024697F90F3011461846FFF75FFF00BFFA
:100B1C001837BD4680BD80B582B000AF0346FB716F
:100B2C0097F907301846FFF735FF00BF0837BD4669
:100B3C0080BD80B582B000AF78607868FFF7A2FF07
:100B4C00034618460837BD4680BD000080B48BB004
:100B5C0000AF7860396000237B6200233B6269E15F
:100B6C0001227B6A02FA03F3FB613B681B68FA699A
:100B7C001340BB61BA69FB699A4240F058813B68EB
:100B8C005B689A4A93425ED0984A934275D8984AC9
:100B9C00934258D0964A93426FD8964A934252D079
:100BAC00944A934269D8944A93424CD0924A9342C5
:100BBC0063D8924A934246D0904A93425DD8122B06
:100BCC002AD8122B59D801A252F823F0530C000842
:100BDC002D0C00083F0C0008810C0008870C000845
:100BEC00870C0008870C0008870C0008870C00088D
:100BFC00870C0008870C0008870C0008870C00087D
:100C0C00870C0008870C0008870C0008870C00086C
:100C1C00350C0008490C0008794A934213D02CE09B
:100C2C003B68DB683B6229E03B68DB6804333B6272
:100C3C0024E03B68DB6808333B621FE03B68DB6801
:100C4C000C333B621AE03B689B68002B02D10423F7
:100C5C003B6213E03B689B68012B05D108233B6288
:100C6C007B68FA691A6109E008233B627B68FA69C0
:100C7C005A6103E000233B6200E000BFBB69FF2B1D
:100C8C0001D87B6801E07B6804337B61BB69FF2B77
:100C9C0002D87B6A9B0002E07B6A083B9B003B61AD
:100CAC007B691A680F213B6901FA03F3DB431A4095
:100CBC00396A3B6901FA03F31A437B691A603B6892
:100CCC005B6803F08053002B00F0B1804D4B9B69A7
:100CDC004C4A43F0010393614A4B9B6903F00103B7
:100CEC00BB60BB68484A7B6A9B08023352F82330CE
:100CFC00FB607B6A03F003039B000F2202FA03F3F1
:100D0C00DB43FA681340FB607B68404A934213D084
:100D1C007B683F4A93420DD07B683E4A934207D092
:100D2C007B683D4A934201D1032306E0042304E08F
:100D3C00022302E0012300E000237A6A02F003029E
:100D4C0092009340FA681343FB602F497B6A9B081F
:100D5C000233FA6841F823203B685B6803F4801384
:100D6C00002B06D02D4B9A682C49BB6913438B6022
:100D7C0006E02A4B9A68BB69DB43284913408B6019
:100D8C003B685B6803F40013002B06D0234BDA6836
:100D9C002249BB691343CB6006E0204BDA68BB6980
:100DAC00DB431E491340CB603B685B6803F40033A4
:100DBC00002B06D0194B5A681849BB6913434B607A
:100DCC0006E0164B5A68BB69DB43144913404B6071
:100DDC003B685B6803F48033002B21D00F4B1A68FF
:100DEC000E49BB6913430B6021E000BF00003210B9
:100DFC000000311000002210000021100000121021
:100E0C0000001110001002400000014000080140D9
:100E1C00000C01400010014000140140000401408E
:100E2C000B4B1A68BB69DB43094913400B607B6AA7
:100E3C0001337B623B681A687B6A22FA03F3002B4E
:100E4C007FF48EAE00BF00BF2C37BD4680BC704710
:100E5C000004014080B483B000AF78600B467B8007
:100E6C0013467B707B78002B03D07A887B681A61E1
:100E7C0003E07B881A047B681A6100BF0C37BD46FF
:100E8C0080BC704780B582B000AF0346FB80084B36
:100E9C005A69FB881340002B06D0054AFB88536126
:100EAC00FB88184600F006F800BF0837BD4680BD29
:100EBC000004014080B483B000AF0346FB8000BF48
:100ECC000C37BD4680BC704780B586B000AF7860EB
:100EDC007B68002B01D1012372E27B681B6803F055
:100EEC000103002B00F08780924B5B6803F00C032E
:100EFC00042B0CD08F4B5B6803F00C03082B12D126
:100F0C008C4B5B6803F48033B3F5803F0BD1894B7A
:100F1C001B6803F40033002B6CD07B685B68002BE0
:100F2C0068D101234CE27B685B68B3F5803F06D146
:100F3C00804B1B687F4A43F4803313602EE07B6840
:100F4C005B68002B0CD17B4B1B687A4A23F48033F3
:100F5C001360784B1B68774A23F4802313601DE0E1
:100F6C007B685B68B3F5A02F0CD1724B1B68714A80
:100F7C0043F4802313606F4B1B686E4A43F4803339
:100F8C0013600BE06B4B1B686A4A23F480331360CD
:100F9C00684B1B68674A23F4802313607B685B688B
:100FAC00002B13D0FFF7BAFC386108E0FFF7B6FC52
:100FBC0002463B69D31A642B01D9032300E25D4B33
:100FCC001B6803F40033002BF0D014E0FFF7A6FCF1
:100FDC00386108E0FFF7A2FC02463B69D31A642B88
:100FEC0001D90323ECE1534B1B6803F40033002BB2
:100FFC00F0D100E000BF7B681B6803F00203002BFC
:10100C0063D04C4B5B6803F00C03002B0BD0494BAB
:10101C005B6803F00C03082B1CD1464B5B6803F494
:10102C008033002B16D1434B1B6803F00203002BBB
:10103C0005D07B681B69012B01D00123C0E13D4B1E
:10104C001B6823F0F8027B685B69DB0039491343AA
:10105C000B603AE07B681B69002B20D0364B0122D9
:10106C001A60FFF75BFC386108E0FFF757FC02469B
:10107C003B69D31A022B01D90323A1E12D4B1B6829
:10108C0003F00203002BF0D02A4B1B6823F0F8026C
:10109C007B685B69DB00274913430B6015E0264B2B
:1010AC0000221A60FFF73AFC386108E0FFF736FCC3
:1010BC0002463B69D31A022B01D9032380E11D4B55
:1010CC001B6803F00203002BF0D17B681B6803F054
:1010DC000803002B3AD07B689B69002B19D0174B67
:1010EC0001221A60FFF71AFC386108E0FFF716FCC2
:1010FC0002463B69D31A022B01D9032360E10D4B45
:10110C005B6A03F00203002BF0D0012000F09CFA84
:10111C001CE00A4B00221A60FFF700FC38610FE05C
:10112C00FFF7FCFB02463B69D31A022B08D90323B9
:10113C0046E100BF001002400000424280044242DF
:10114C00924B5B6A03F00203002BE9D17B681B68AE
:10115C0003F00403002B00F0A6800023FB758B4BDF
:10116C00DB6903F08053002B0DD1884BDB69874A78
:10117C0043F08053D361854BDB6903F08053BB6034
:10118C00BB680123FB75824B1B6803F48073002B37
:10119C0018D17F4B1B687E4A43F480731360FFF7B2
:1011AC00BDFB386108E0FFF7B9FB02463B69D31A77
:1011BC00642B01D9032303E1754B1B6803F4807383
:1011CC00002BF0D07B68DB68012B06D16F4B1B6AC0
:1011DC006E4A43F0010313622DE07B68DB68002B41
:1011EC000CD16A4B1B6A694A23F001031362674BEB
:1011FC001B6A664A23F0040313621CE07B68DB68FD
:10120C00052B0CD1614B1B6A604A43F0040313623B
:10121C005E4B1B6A5D4A43F0010313620BE05B4BB0
:10122C001B6A5A4A23F001031362584B1B6A574A34
:10123C0023F0040313627B68DB68002B15D0FFF7E7
:10124C006DFB38610AE0FFF769FB02463B69D31A74
:10125C0041F28832934201D90323B1E04B4B1B6A14
:10126C0003F00203002BEED014E0FFF757FB3861BC
:10127C000AE0FFF753FB02463B69D31A41F288326E
:10128C00934201D903239BE0404B1B6A03F00203FA
:10129C00002BEED1FB7D012B05D13C4BDB693B4A8E
:1012AC0023F08053D3617B68DB69002B00F08780CF
:1012BC00364B5B6803F00C03082B61D07B68DB6951
:1012CC00022B46D1334B00221A60FFF727FB386103
:1012DC0008E0FFF723FB02463B69D31A022B01D926
:1012EC0003236DE0294B1B6803F00073002BF0D136
:1012FC007B681B6AB3F5803F08D1244B5B6823F4F1
:10130C0000327B689B68214913434B601F4B5B6821
:10131C0023F474127B68196A7B685B6A0B431B4964
:10132C0013434B601B4B01221A60FFF7F7FA38612D
:10133C0008E0FFF7F3FA02463B69D31A022B01D9F6
:10134C0003233DE0114B1B6803F00073002BF0D01E
:10135C0035E0104B00221A60FFF7E0FA386108E024
:10136C00FFF7DCFA02463B69D31A022B01D903239F
:10137C0026E0064B1B6803F00073002BF0D11EE037
:10138C007B68DB69012B07D1012319E000100240B7
:10139C0000700040600042420B4B5B68FB60FB68D6
:1013AC0003F480327B681B6A9A4206D1FB6803F413
:1013BC0070127B685B6A9A4201D0012300E0002323
:1013CC0018461837BD4680BD0010024080B584B069
:1013DC0000AF786039607B68002B01D10123D0E02D
:1013EC006A4B1B6803F007033A689A4210D9674BA3
:1013FC001B6823F0070265493B6813430B60634B82
:10140C001B6803F007033A689A4201D00123B8E045
:10141C007B681B6803F00203002B20D07B681B68E1
:10142C0003F00403002B05D0594B5B68584A43F476
:10143C00E06353607B681B6803F00803002B05D046
:10144C00534B5B68524A43F460535360504B5B6898
:10145C0023F0F0027B689B684D4913434B607B681B
:10146C001B6803F00103002B40D07B685B68012BE9
:10147C0007D1474B1B6803F40033002B15D1012314
:10148C007FE07B685B68022B07D1414B1B6803F044
:10149C000073002B09D1012373E03D4B1B6803F053
:1014AC000203002B01D101236BE0394B5B6823F065
:1014BC0003027B685B68364913434B60FFF72EFAD7
:1014CC00F8600AE0FFF72AFA0246FB68D31A41F2E9
:1014DC008832934201D9032353E02D4B5B6803F010
:1014EC000C027B685B689B009A42EBD1274B1B6814
:1014FC0003F007033A689A4210D2244B1B6823F07E
:10150C00070222493B6813430B60204B1B6803F016
:10151C0007033A689A4201D0012332E07B681B68CA
:10152C0003F00403002B08D0194B5B6823F4E06232
:10153C007B68DB68164913434B607B681B6803F0C0
:10154C000803002B09D0124B5B6823F460527B68B4
:10155C001B69DB000E4913434B6000F021F8024677
:10156C000B4B5B681B0903F00F030A49CB5C22FA97
:10157C0003F3094A1360094B1B681846FFF78CF9F3
:10158C00002318461037BD4680BD00BF0020024026
:10159C0000100240F81C000800000020040000208D
:1015AC0080B487B000AF0023FB600023BB60002336
:1015BC007B6100237B6000233B611E4B5B68FB60FF
:1015CC00FB6803F00C03042B02D0082B03D027E09C
:1015DC00194B3B6127E0FB689B0C03F00F03174A88
:1015EC00D35C7B60FB6803F48033002B10D0114B71
:1015FC005B685B0C03F00103114AD35CBB607B6836
:10160C000D4A03FB02F2BB68B2FBF3F37B6104E00F
:10161C007B680C4A02FB03F37B617B693B6102E054
:10162C00054B3B6100BF3B6918461C37BD4680BC6F
:10163C00704700BF0010024000127A00081D00081D
:10164C00181D000800093D0080B485B000AF78601B
:10165C000A4B1B680A4AA2FB03235B0A7A6802FB4B
:10166C0003F3FB6000BFFB685A1EFA60002BF9D134
:10167C0000BF00BF1437BD4680BC7047000000207F
:10168C00D34D621003460244934200D1704703F8D5
:10169C00011BF9E770B500260C4D0D4C641BA41012
:1016AC00A64209D100F01AF800260A4D0A4C641B18
:1016BC00A410A64205D170BD55F8043B98470136DD
:1016CC00EEE755F8043B98470136F2E71C1D00087D
:1016DC001C1D00081C1D0008201D0008F8B500BFCB
:1016EC00F8BC08BC9E467047F8B500BFF8BC08BCF7
:0416FC009E4670474F
:10170000636F756E743A0000000000000000000076
:101710000000000000000000000000F800000000D1
:10172000000000333000000000100C06100C060012
:10173000000000000000000040C07840C078400079
:10174000043F04043F040400007088FC08300000DB
:10175000001820FF211E0000F008F000E018000033
:1017600000211C031E211E0000F0088870000000EC
:101770001E2123241927211010160E00000000003E
:101780000000000000000000000000E0180402005B
:10179000000000071820400000020418E0000000CC
:1017A0000040201807000000404080F080404000CA
:1017B0000202010F01020200000000F00000000020
:1017C0000101011F010101000000000000000000F4
:1017D00080B0700000000000000000000000000069
:1017E00000010101010101010000000000000000F2
:1017F000003030000000000000000000806018048D
:10180000006018060100000000E010080810E00069
:10181000000F102020100F00001010F80000000032
:101820000020203F20200000007008080888700079
:1018300000302824222130000030088888483000F9
:101840000018202020110E000000C02010F8000019
:1018500000070424243F240000F8088888080800B2
:101860000019212020110E0000E0108888180000C7
:10187000000F112020110E0000380808C838080099
:101880000000003F00000000007088080888700019
:10189000001C222121221C0000E010080810E0009A
:1018A0000000312222110F00000000C0C000000023
:1018B0000000003030000000000000800000000048
:1018C0000000806000000000000080402010080040
:1018D0000001020408102000404040404040400009
:1018E00004040404040404000008102040800000E4
:1018F0000020100804020100007048080808F000E9
:101900000000003036010000C030C828E810E000B8
:101910000718272423140B000000C038E000000043
:10192000203C23020227382008F8888888700000AD
:10193000203F202020110E00C03008080808380081
:10194000071820202010080008F808080810E000F8
:10195000203F202020100F0008F88888E808100099
:10196000203F20202320180008F88888E80810006D
:10197000203F200003000000C030080808380000A5
:1019800007182020221E020008F808000008F808A6
:10199000203F210101213F20000808F8080800002D
:1019A0000020203F2020000000000808F808080060
:1019B000C08080807F00000008F888C028180800D8
:1019C000203F20012638200008F808000000000011
:1019D000203F20202020300008F8F800F8F8080008
:1019E000203F003F003F200008F830C00008F80802
:1019F000203F200007183F00E01008080810E00012
:101A00000F10202020100F0008F808080808F00028
:101A1000203F210101010000E01008080810E0004B
:101A20000F18242438504F0008F8888888887000E0
:101A3000203F2000030C3020007088080808380080
:101A40000038202121221C00180808F80808180076
:101A50000000203F2000000008F808000008F808F7
:101A6000001F202020201F000878880000C83808A8
:101A7000000007380E010000F80800F80008F80020
:101A8000033C0700073C03000818688080681808BA
:101A900020302C03032C30200838C800C838080038
:101AA0000000203F2000000010080808C838080087
:101AB0002038262120201800000000FE020202002B
:101AC0000000007F40404000000C30C000000000DB
:101AD000000000010638C00000020202FE00000003
:101AE000004040407F0000000000040202020400A9
:101AF00000000000000000000000000000000000E6
:101B000080808080808080800002020400000000CD
:101B100000000000000000000000808080800000C5
:101B20000019242222223F2008F8008080000000B3
:101B3000003F112020110E00000000808080000076
:101B4000000E112020201100000000808088F80085
:101B5000000E112020103F200000808080800000B7
:101B6000001F222222221300008080F0888888181B
:101B70000020203F20200000000080808080800026
:101B8000006B94949493600008F8008080800000BB
:101B9000203F210000203F20008098980000000096
:101BA0000020203F202000000000008098980000C6
:101BB00000C08080807F000008F8000080808000E6
:101BC000203F24022D302000000808F8000000000B
:101BD0000020203F202000008080808080808000C6
:101BE000203F20003F20003F808000808080000058
:101BF000203F210000203F200000808080800000E6
:101C0000001F202020201F00808000808000000016
:101C100080FFA12020110E00000000808080800045
:101C2000000E112020A0FF80808080008080800036
:101C300020203F2120000100000080808080800063
:101C40000033242424241900008080E080800000D8
:101C50000000001F20200000808000000080800025
:101C6000001F202020103F20808080000080808086
:101C700000010E3008060100808000800080808016
:101C80000F300C030C300F0000808000808080003B
:101C90000020312E0E312000808080000080808066
:101CA00080818E7018060100008080808080800016
:101CB0000021302C2221300000000000807C020234
:101CC00000000000003F404000000000FF00000056
:101CD00000000000FF0000000002027C8000000005
:101CE0000040403F00000000000601010202040421
:101CF00000000000000000000000000000000000E4
:101D0000010203040607080902030405060708097F
:0C1D10000A0B0C0D0E0F10100102000059
:041D1C003101000889
:041D20000D010008A9
:0C1D240000127A00100000000100000016
:040000050800082DBA
:00000001FF
