:020000040800F2
:10000000005000209509000831090008390900084E
:1000100041090008490900085109000800000000D2
:100020000000000000000000000000005909000866
:100030006509000800000000710900087D0900083A
:10004000DD090008DD090008DD090008DD090008F8
:10005000DD090008DD090008DD090008DD090008E8
:10006000DD090008DD090008DD090008DD090008D8
:10007000DD090008DD090008DD090008DD090008C8
:10008000DD090008DD090008DD090008DD090008B8
:10009000DD090008DD090008DD090008DD090008A8
:1000A000DD090008DD090008DD090008DD09000898
:1000B000DD090008DD090008DD090008DD09000888
:1000C000DD090008DD090008DD090008DD09000878
:1000D000DD090008DD090008DD090008DD09000868
:1000E000DD090008DD090008DD0900080000000046
:1000F0000000000000000000000000000000000000
:0C01000000000000000000005FF808F1A3
:10010C0010B5054C237833B9044B13B10448AFF345
:10011C0000800123237010BD0C00002000000000A3
:10012C003426000808B5034B1BB103490348AFF351
:10013C00008008BD000000001000002034260008DC
:10014C0080B500AF00F030FA01224FF48071054801
:10015C0000F00AFF01224FF40071024800F004FF86
:10016C0000BF80BD000C014080B500AF01224FF4F0
:10017C0000710B4800F0F8FE01224FF48071084822
:10018C0000F0F2FE00224FF40071054800F0ECFE86
:10019C0000224FF48071024800F0E6FE00BF80BDE3
:1001AC00000C014080B500AF00224FF400710848EC
:1001BC0000F0DAFE01224FF48071054800F0D4FE05
:1001CC0001224FF40071024800F0CEFE00BF80BD4A
:1001DC00000C014080B584B000AF0346FB710023D6
:1001EC00FB731FE0FA79FB7B802141FA03F3134088
:1001FC00002B14BF01230023DBB21A464FF400710D
:10020C00124800F0B1FE01224FF480710F4800F04B
:10021C00ABFE00224FF480710C4800F0A5FEFB7B76
:10022C000133FB73FB7B072BDCD901224FF480716C
:10023C00064800F099FE00224FF48071034800F04C
:10024C0093FE00BF1037BD4680BD00BF000C0140BF
:10025C0080B582B000AF0346FB71FFF785FF7820B5
:10026C00FFF7B8FF0020FFF7B5FFFB791846FFF743
:10027C00B1FFFFF797FF00BF0837BD4680BD80B5C3
:10028C0082B000AF0346FB71FFF76EFF7820FFF7DB
:10029C00A1FF4020FFF79EFFFB791846FFF79AFF5E
:1002AC00FFF780FF00BF0837BD4680BD80B582B028
:1002BC0000AF03460A46FB711346BB71FB7963F032
:1002CC004F03DBB21846FFF7C3FFBB791B09DBB248
:1002DC0043F01003DBB21846FFF7BAFFBB7903F00B
:1002EC000F03DBB21846FFF7B3FF00BF0837BD465C
:1002FC0080BD80B582B000AF0023BB7114E0BB7928
:10030C0000211846FFF7D2FF0023FB7105E0002007
:10031C00FFF7B5FFFB790133FB7197F90730002B21
:10032C00F5DABB790133BB71BB79072BE7D900BF79
:10033C0000BF0837BD4680BD80B584B000AF034612
:10034C00FB710B46BB7113467B71FB79013BDBB236
:10035C005B00DAB2BB79013BDBB2DB00DBB21946E6
:10036C001046FFF7A3FF0023FB730EE07B79A3F18C
:10037C002002FB7B1B4912010A4413441B781846CC
:10038C00FFF77DFFFB7B0133FB73FB7B072BEDD969
:10039C00FB795B00DBB2013BDAB2BB79013BDBB230
:1003AC00DB00DBB219461046FFF780FF0023FB731E
:1003BC000FE07B79A3F12002FB7B08330949120182
:1003CC000A4413441B781846FFF759FFFB7B013393
:1003DC00FB73FB7B072BECD900BF00BF1037BD466E
:1003EC0080BD00BF7426000880B584B000AF034602
:1003FC003A60FB710B46BB710023FB730EE0BA79BC
:10040C00FB7B1344D9B2FB7B3A6813441A78FB7913
:10041C001846FFF791FFFB7B0133FB73FB7B3A68BC
:10042C0013441B78002BEAD100BF00BF1037BD4628
:10043C0080BD80B485B000AF786039600123FB606B
:10044C0004E0FB687A6802FB03F3FB603B685A1E0E
:10045C003A60002BF5D1FB6818461437BD4680BCBA
:10046C007047000090B585B000AF3A601A4603465D
:10047C00FB710B46BB7113467B710023FB7323E0AE
:10048C00BA79FB7B1344DCB27A79FB7BD31A013B40
:10049C0019460A20FFF7CDFF02463B68B3FBF2F189
:1004AC000E4BA3FB0123DA0813469B0013445B009D
:1004BC00CA1AD3B23033DAB2FB7921461846FFF7A9
:1004CC003BFFFB7B0133FB73FA7B7B799A42D7D3DF
:1004DC0000BF00BF1437BD4690BD00BFCDCCCCCC07
:1004EC0080B582B000AF00237B600CE000233B6042
:1004FC0002E03B6801333B603B68B3F57A7FF8D38D
:10050C007B6801337B607B68B3F57A7FEED3FFF7B2
:10051C0017FEAE20FFF79CFED520FFF799FE80203A
:10052C00FFF796FEA820FFF793FE3F20FFF790FE03
:10053C00D320FFF78DFE0020FFF78AFE4020FFF747
:10054C0087FEA120FFF784FEC820FFF781FEDA208A
:10055C00FFF77EFE1220FFF77BFE8120FFF778FE6F
:10056C00CF20FFF775FED920FFF772FEF120FFF7C1
:10057C006FFEDB20FFF76CFE3020FFF769FEA42036
:10058C00FFF766FEA620FFF763FE8D20FFF760FEE7
:10059C001420FFF75DFEAF20FFF75AFEFFF7A9FE10
:1005AC0000BF0837BD4680BD80B588B000AF07F1ED
:1005BC00100300221A605A609A60DA60244B9B691F
:1005CC00234A43F010039361214B9B6903F0100302
:1005DC00FB60FB681E4B9B691D4A43F02003936133
:1005EC001B4B9B6903F02003BB60BB68184B9B69DA
:1005FC00174A43F004039361154B9B6903F0040302
:10060C007B607B68124B9B69114A43F00803936132
:10061C000F4B9B6903F008033B603B6800224FF4CF
:10062C0040710C4800F0A0FC4FF440733B61112367
:10063C007B610023BB610223FB6107F110031946A8
:10064C00044800F00DFB00BF2037BD4680BD00BF45
:10065C0000100240000C014080B500AF00F0BAF968
:10066C0000F066F8FFF7A0FF00F0BCF8FFF738FFCA
:10067C00294A01210120FFF7B7FE284A0121022057
:10068C00FFF7B2FE264A01210320FFF7ADFE002240
:10069C002449254801F0A6FC00222449224801F0F7
:1006AC0013FB204BDB781A46022308210120FFF7AD
:1006BC00D9FE1C4B5B781A4602230B210120FFF755
:1006CC00D1FE184B9B781A4602230E210120FFF70E
:1006DC00C9FE164B1B781A46022306210220FFF78F
:1006EC00C1FE124B5B781A46022309210220FFF748
:1006FC00B9FE0E4B9B781A4602230C210220FFF701
:10070C00B1FE094801F0EFFC02460A230621032042
:10071C00FFF7A8FE00BFBAE74C2600085C260008CD
:10072C006C26000828000020300000202C0000203F
:10073C0080B594B000AF07F1280328220021184699
:10074C0001F046FF07F1140300221A605A609A6008
:10075C00DA601A613B1D00221A605A609A60DA60F6
:10076C000623BB6201237B630123BB631023FB6362
:10077C0000237B6407F12803184600F019FC03469C
:10078C00002B01D000F027F80F237B610023BB6105
:10079C000023FB6100233B6200237B6207F11403FF
:1007AC000021184600F086FE0346002B01D000F015
:1007BC0012F801237B604FF48073BB603B1D18461D
:1007CC0000F0F2FF0346002B01D000F004F800BF4C
:1007DC005037BD4680BD80B400AF72B600BF00BFBD
:1007EC00FDE7000080B582B000AF3B1D00210A463A
:1007FC001A800A469A7000233B601D4B1D4A1A60F2
:10080C001B4B4FF0FF325A60194B4FF480729A60B9
:10081C00174801F035F90346002B01D0FFF7DBFF39
:10082C0014233B7100237B710023BB713B1D002201
:10083C0019460F4801F0B0F90346002B01D0FFF721
:10084C00CAFF06233B7004237B700B23BB701A2357
:10085C00FB703B4600221946054801F00DFB034690
:10086C00002B01D0FFF7B7FF00BF0837BD4680BD96
:10087C00300000200028004080B584B000AF7860C4
:10088C007B681B680B4A934210D100F085FB0A4B26
:10089C00DB69094A43F00063D361074BDB6903F062
:1008AC000063FB60FB68054B01221A6000BF103728
:1008BC00BD4680BD00280040001002403C0442426E
:1008CC0080B485B000AF154B9B69144A43F001030B
:1008DC009361124B9B6903F00103BB60BB680F4B28
:1008EC00DB690E4A43F08053D3610C4BDB6903F098
:1008FC0080537B607B680A4B5B68FB60FB6823F072
:10090C00E063FB60FB6843F00073FB60044AFB6828
:10091C00536000BF1437BD4680BC704700100240C6
:10092C000000014080B400AF00BFFDE780B400AF11
:10093C0000BFFDE780B400AF00BFFDE780B400AF9F
:10094C0000BFFDE780B400AF00BFFDE780B400AF8F
:10095C0000BFBD4680BC704780B400AF00BFBD4631
:10096C0080BC704780B400AF00BFBD4680BC7047F0
:10097C0080B500AF00F074F800BF80BD80B400AF4C
:10098C0000BFBD4680BC7047FFF7F8FF0B480C4911
:10099C000C4A002302E0D458C4500433C4188C42CF
:1009AC00F9D3094A094C002301E013600432A24236
:1009BC00FBD301F015FEFFF74FFE7047000000203F
:1009CC000C000020AC2C00080C000020480000207B
:1009DC00FEE7000080B500AF084B1B68074A43F0E8
:1009EC0010031360032000F007F90F2000F008F843
:1009FC00FFF766FF0023184680BD00BF00200240B1
:100A0C0080B582B000AF7860124B1A68124B1B781D
:100A1C0019464FF47A73B3FBF1F3B2FBF3F31846B8
:100A2C0000F011F90346002B01D001230EE07B6886
:100A3C000F2B0AD8002279684FF0FF3000F0E7F84E
:100A4C00064A7B681360002300E001231846083730
:100A5C00BD4680BD000000200800002004000020DE
:100A6C0080B400AF054B1B781A46054B1B6813442A
:100A7C00034A136000BFBD4680BC704708000020CD
:100A8C004400002080B400AF024B1B681846BD46E2
:100A9C0080BC70474400002080B485B000AF786003
:100AAC007B6803F00703FB600C4BDB68BB60BA6828
:100ABC004FF6FF031340BB60FB681A02BB6813437D
:100ACC0043F0BF6343F40033BB60044ABB68D3609C
:100ADC0000BF1437BD4680BC704700BF00ED00E07E
:100AEC0080B400AF044BDB681B0A03F00703184605
:100AFC00BD4680BC704700BF00ED00E080B483B001
:100B0C0000AF03463960FB7197F90730002B0ADB05
:100B1C003B68DAB20C4997F907301201D2B20B4498
:100B2C0083F800230AE03B68DAB20849FB7903F04A
:100B3C000F03043B1201D2B20B441A7600BF0C37E0
:100B4C00BD4680BC704700BF00E100E000ED00E056
:100B5C0080B489B000AFF860B9607A60FB6803F0CC
:100B6C000703FB61FB69C3F10703042B28BF0423B4
:100B7C00BB61FB690433062B02D9FB69033B00E024
:100B8C0000237B614FF0FF32BB6902FA03F3DA43B7
:100B9C00BB681A407B699A404FF0FF317B6901FAC0
:100BAC0003F3D9437B680B40134318462437BD46E7
:100BBC0080BC704780B582B000AF78607B68013B29
:100BCC00B3F1807F01D301230FE00A4A7B68013B1C
:100BDC0053600F214FF0FF30FFF790FF054B0022C1
:100BEC009A60044B07221A60002318460837BD464A
:100BFC0080BD00BF10E000E080B582B000AF78602F
:100C0C007868FFF749FF00BF0837BD4680BD80B547
:100C1C0086B000AF0346B9607A60FB7300237B613A
:100C2C00FFF75EFF78617A68B9687869FFF790FF23
:100C3C00024697F90F3011461846FFF75FFF00BFC9
:100C4C001837BD4680BD80B582B000AF786078683B
:100C5C00FFF7B0FF034618460837BD4680BD0000BD
:100C6C0080B48BB000AF7860396000237B620023C6
:100C7C003B6269E101227B6A02FA03F3FB613B6888
:100C8C001B68FA691340BB61BA69FB699A4240F070
:100C9C0058813B685B689A4A93425ED0984A93426B
:100CAC0075D8984A934258D0964A93426FD8964A30
:100CBC00934252D0944A934269D8944A93424CD06E
:100CCC00924A934263D8924A934246D0904A9342B6
:100CDC005DD8122B2AD8122B59D801A252F823F026
:100CEC00670D0008410D0008530D0008950D000814
:100CFC009B0D00089B0D00089B0D00089B0D000828
:100D0C009B0D00089B0D00089B0D00089B0D000817
:100D1C009B0D00089B0D00089B0D00089B0D000807
:100D2C009B0D0008490D00085D0D0008794A93429F
:100D3C0013D02CE03B68DB683B6229E03B68DB6846
:100D4C0004333B6224E03B68DB6808333B621FE002
:100D5C003B68DB680C333B621AE03B689B68002BFA
:100D6C0002D104233B6213E03B689B68012B05D145
:100D7C0008233B627B68FA691A6109E008233B622D
:100D8C007B68FA695A6103E000233B6200E000BF14
:100D9C00BB69FF2B01D87B6801E07B6804337B6166
:100DAC00BB69FF2B02D87B6A9B0002E07B6A083B85
:100DBC009B003B617B691A680F213B6901FA03F3C5
:100DCC00DB431A40396A3B6901FA03F31A437B6926
:100DDC001A603B685B6803F08053002B00F0B18015
:100DEC004D4B9B694C4A43F0010393614A4B9B6901
:100DFC0003F00103BB60BB68484A7B6A9B08023363
:100E0C0052F82330FB607B6A03F003039B000F2234
:100E1C0002FA03F3DB43FA681340FB607B68404A39
:100E2C00934213D07B683F4A93420DD07B683E4A75
:100E3C00934207D07B683D4A934201D1032306E0DD
:100E4C00042304E0022302E0012300E000237A6A79
:100E5C0002F0030292009340FA681343FB602F499F
:100E6C007B6A9B080233FA6841F823203B685B6875
:100E7C0003F48013002B06D02D4B9A682C49BB69C8
:100E8C0013438B6006E02A4B9A68BB69DB43284905
:100E9C0013408B603B685B6803F40013002B06D097
:100EAC00234BDA682249BB691343CB6006E0204B25
:100EBC00DA68BB69DB431E491340CB603B685B6857
:100ECC0003F40033002B06D0194B5A681849BB6940
:100EDC0013434B6006E0164B5A68BB69DB4314495D
:100EEC0013404B603B685B6803F48033002B21D0CC
:100EFC000F4B1A680E49BB6913430B6021E000BF0E
:100F0C0000003210000031100000221000002110EF
:100F1C0000001210000011100010024000000140EF
:100F2C0000080140000C0140001001400014014079
:100F3C00000401400B4B1A68BB69DB4309491340A1
:100F4C000B607B6A01337B623B681A687B6A22FA0E
:100F5C0003F3002B7FF48EAE00BF00BF2C37BD46D1
:100F6C0080BC70470004014080B483B000AF78604F
:100F7C000B467B8013467B707B78002B03D07A88E2
:100F8C007B681A6103E07B881A047B681A6100BFD6
:100F9C000C37BD4680BC704780B400AF034B0122B8
:100FAC001A6000BFBD4680BC704700BF20000E42D7
:100FBC0080B586B000AF78607B68002B01D101232F
:100FCC0072E27B681B6803F00103002B00F0878042
:100FDC00924B5B6803F00C03042B0CD08F4B5B68BB
:100FEC0003F00C03082B12D18C4B5B6803F4803399
:100FFC00B3F5803F0BD1894B1B6803F40033002BF6
:10100C006CD07B685B68002B68D101234CE27B6859
:10101C005B68B3F5803F06D1804B1B687F4A43F475
:10102C00803313602EE07B685B68002B0CD17B4B0C
:10103C001B687A4A23F480331360784B1B68774A19
:10104C0023F4802313601DE07B685B68B3F5A02F4D
:10105C000CD1724B1B68714A43F4802313606F4BA5
:10106C001B686E4A43F4803313600BE06B4B1B68B8
:10107C006A4A23F480331360684B1B68674A23F475
:10108C00802313607B685B68002B13D0FFF7FAFC9E
:10109C00386108E0FFF7F6FC02463B69D31A642B73
:1010AC0001D9032300E25D4B1B6803F40033002BD2
:1010BC00F0D014E0FFF7E6FC386108E0FFF7E2FC43
:1010CC0002463B69D31A642B01D90323ECE1534B41
:1010DC001B6803F40033002BF0D100E000BF7B68E9
:1010EC001B6803F00203002B63D04C4B5B6803F0CE
:1010FC000C03002B0BD0494B5B6803F00C03082B43
:10110C001CD1464B5B6803F48033002B16D1434B48
:10111C001B6803F00203002B05D07B681B69012BB5
:10112C0001D00123C0E13D4B1B6823F0F8027B6822
:10113C005B69DB00394913430B603AE07B681B6940
:10114C00002B20D0364B01221A60FFF79BFC386134
:10115C0008E0FFF797FC02463B69D31A022B01D932
:10116C000323A1E12D4B1B6803F00203002BF0D0ED
:10117C002A4B1B6823F0F8027B685B69DB0027496C
:10118C0013430B6015E0264B00221A60FFF77AFC24
:10119C00386108E0FFF776FC02463B69D31A022B54
:1011AC0001D9032380E11D4B1B6803F00203002BC4
:1011BC00F0D17B681B6803F00803002B3AD07B68E6
:1011CC009B69002B19D0174B01221A60FFF75AFCB0
:1011DC00386108E0FFF756FC02463B69D31A022B34
:1011EC0001D9032360E10D4B5B6A03F00203002B72
:1011FC00F0D0012000F0BAFA1CE00A4B00221A6071
:10120C00FFF740FC38610FE0FFF73CFC02463B69FE
:10121C00D31A022B08D9032346E100BF0010024069
:10122C000000424280044242924B5B6A03F002038C
:10123C00002BE9D17B681B6803F00403002B00F042
:10124C00A6800023FB758B4BDB6903F08053002BCE
:10125C000DD1884BDB69874A43F08053D361854BB2
:10126C00DB6903F08053BB60BB680123FB75824BC9
:10127C001B6803F48073002B18D17F4B1B687E4ACC
:10128C0043F480731360FFF7FDFB386108E0FFF750
:10129C00F9FB02463B69D31A642B01D9032303E102
:1012AC00754B1B6803F48073002BF0D07B68DB68F4
:1012BC00012B06D16F4B1B6A6E4A43F0010313627C
:1012CC002DE07B68DB68002B0CD16A4B1B6A694AEA
:1012DC0023F001031362674B1B6A664A23F0040375
:1012EC0013621CE07B68DB68052B0CD1614B1B6A1D
:1012FC00604A43F0040313625E4B1B6A5D4A43F081
:10130C00010313620BE05B4B1B6A5A4A23F0010387
:10131C001362584B1B6A574A23F0040313627B6811
:10132C00DB68002B15D0FFF7ADFB38610AE0FFF747
:10133C00A9FB02463B69D31A41F28832934201D988
:10134C000323B1E04B4B1B6A03F00203002BEED0DE
:10135C0014E0FFF797FB38610AE0FFF793FB0246B6
:10136C003B69D31A41F28832934201D903239BE0A3
:10137C00404B1B6A03F00203002BEED1FB7D012BCB
:10138C0005D13C4BDB693B4A23F08053D3617B682E
:10139C00DB69002B00F08780364B5B6803F00C0395
:1013AC00082B61D07B68DB69022B46D1334B0022C2
:1013BC001A60FFF767FB386108E0FFF763FB024632
:1013CC003B69D31A022B01D903236DE0294B1B680F
:1013DC0003F00073002BF0D17B681B6AB3F5803FE0
:1013EC0008D1244B5B6823F400327B689B6821494D
:1013FC0013434B601F4B5B6823F474127B68196AB0
:10140C007B685B6A0B431B4913434B601B4B0122EC
:10141C001A60FFF737FB386108E0FFF733FB024631
:10142C003B69D31A022B01D903233DE0114B1B68F6
:10143C0003F00073002BF0D035E0104B00221A6043
:10144C00FFF720FB386108E0FFF71CFB02463B6905
:10145C00D31A022B01D9032326E0064B1B6803F099
:10146C000073002BF0D11EE07B68DB69012B07D1E8
:10147C00012319E00010024000700040600042425D
:10148C000B4B5B68FB60FB6803F480327B681B6A68
:10149C009A4206D1FB6803F470127B685B6A9A422D
:1014AC0001D0012300E0002318461837BD4680BD4B
:1014BC000010024080B584B000AF786039607B6862
:1014CC00002B01D10123D0E06A4B1B6803F007030A
:1014DC003A689A4210D9674B1B6823F0070265499A
:1014EC003B6813430B60634B1B6803F007033A68BC
:1014FC009A4201D00123B8E07B681B6803F0020319
:10150C00002B20D07B681B6803F00403002B05D054
:10151C00594B5B68584A43F4E06353607B681B6823
:10152C0003F00803002B05D0534B5B68524A43F47D
:10153C0060535360504B5B6823F0F0027B689B68F0
:10154C004D4913434B607B681B6803F00103002B70
:10155C0040D07B685B68012B07D1474B1B6803F4B9
:10156C000033002B15D101237FE07B685B68022BD5
:10157C0007D1414B1B6803F00073002B09D10123E9
:10158C0073E03D4B1B6803F00203002B01D10123D8
:10159C006BE0394B5B6823F003027B685B68364970
:1015AC0013434B60FFF76EFAF8600AE0FFF76AFA34
:1015BC000246FB68D31A41F28832934201D90323C5
:1015CC0053E02D4B5B6803F00C027B685B689B005F
:1015DC009A42EBD1274B1B6803F007033A689A42F7
:1015EC0010D2244B1B6823F0070222493B6813439B
:1015FC000B60204B1B6803F007033A689A4201D03A
:10160C00012332E07B681B6803F00403002B08D035
:10161C00194B5B6823F4E0627B68DB681649134363
:10162C004B607B681B6803F00803002B09D0124B3E
:10163C005B6823F460527B681B69DB000E49134323
:10164C004B6000F021F802460B4B5B681B0903F062
:10165C000F030A49CB5C22FA03F3094A1360094BC6
:10166C001B681846FFF7CCF9002318461037BD4607
:10167C0080BD00BF0020024000100240642C000816
:10168C00000000200400002080B487B000AF0023CD
:10169C00FB600023BB6000237B6100237B60002385
:1016AC003B611E4B5B68FB60FB6803F00C03042B77
:1016BC0002D0082B03D027E0194B3B6127E0FB68D5
:1016CC009B0C03F00F03174AD35C7B60FB6803F49D
:1016DC008033002B10D0114B5B685B0C03F00103C3
:1016EC00114AD35CBB607B680D4A03FB02F2BB68FA
:1016FC00B2FBF3F37B6104E07B680C4A02FB03F35F
:10170C007B617B693B6102E0054B3B6100BF3B6940
:10171C0018461C37BD4680BC704700BF0010024005
:10172C0000127A007C2C00088C2C000800093D006B
:10173C0080B400AF024B1B681846BD4680BC704796
:10174C000000002080B500AFFFF7F2FF0246054B0A
:10175C005B68DB0A03F007030349CB5C22FA03F353
:10176C00184680BD00100240742C000880B485B06F
:10177C0000AF78600A4B1B680A4AA2FB03235B0A82
:10178C007A6802FB03F3FB6000BFFB685A1EFA6029
:10179C00002BF9D100BF00BF1437BD4680BC704789
:1017AC0000000020D34D621080B586B000AF786089
:1017BC0000233B610023FB607B681B6803F0010383
:1017CC00002B7DD00023FB754F4BDB6903F080535E
:1017DC00002B0DD14C4BDB694B4A43F08053D3614A
:1017EC00494BDB6903F08053BB60BB680123FB757D
:1017FC00464B1B6803F48073002B18D1434B1B68BA
:10180C00424A43F480731360FFF73CF9386108E0F7
:10181C00FFF738F902463B69D31A642B01D903232D
:10182C006DE03A4B1B6803F48073002BF0D0364B01
:10183C001B6A03F44073FB60FB68002B2ED07B68A3
:10184C005B6803F44073FA689A4227D02E4B1B6AEC
:10185C0023F44073FB602E4B01221A602C4B0022A8
:10186C001A60294AFB681362FB6803F00103002B22
:10187C0014D0FFF707F938610AE0FFF703F90246C5
:10188C003B69D31A41F28832934201D9032336E0E3
:10189C001D4B1B6A03F00203002BEED01A4B1B6A84
:1018AC0023F440727B685B68174913430B62FB7D22
:1018BC00012B05D1144BDB69134A23F08053D36100
:1018CC007B681B6803F00203002B08D00E4B5B688F
:1018DC0023F440427B689B680B4913434B607B6845
:1018EC001B6803F01003002B08D0074B5B6823F434
:1018FC0080027B68DB68044913434B600023184665
:10190C001837BD4680BD00BF00100240007000407B
:10191C004004424280B588B000AF786000237B6100
:10192C000023FB6100233B610023FB600023BB61B0
:10193C007B68102B0AD07B68102B00F28A807B68A6
:10194C00012B45D07B68022B75D082E0464B5B683F
:10195C00FB60454B1B6803F08073002B7BD0FB684E
:10196C009B0C03F00F03414AD35C3B61FB6803F40F
:10197C008033002B15D03C4B5B685B0C03F00103F0
:10198C003B4AD35C7B61FB6803F48033002B0DD0A6
:10199C00384A7B69B2FBF3F23B6902FB03F3FB6150
:1019AC0004E03B69344A02FB03F3FB612E4B5B689A
:1019BC0003F48003B3F5800F02D1FB69BB614AE0ED
:1019CC00FB695B002D4AA2FB03235B08BB6142E071
:1019DC00254B1B6AFB60FB6803F44073B3F5807FF7
:1019EC0008D1FB6803F00203002B03D04FF4004333
:1019FC00BB611FE0FB6803F44073B3F5007F09D1B2
:101A0C00194B5B6A03F00203002B03D049F64043E9
:101A1C00BB610FE0FB6803F44073B3F5407F1CD14E
:101A2C00114B1B6803F40033002B16D04FF22443E8
:101A3C00BB6112E011E0FFF785FE02460A4B5B68C2
:101A4C009B0B03F0030301335B00B2FBF3F3BB61AD
:101A5C0004E000BF02E000BF00E000BFBB69184615
:101A6C002037BD4680BD00BF00100240902C0008FE
:101A7C00A02C000800127A0000093D00ABAAAAAA0B
:101A8C0080B584B000AF78600023FB607B68002BCE
:101A9C0001D101237AE07B685B7CDBB2002B05D1A2
:101AAC007B6800221A747868FEF7E6FE7B680222D7
:101ABC005A74786800F0EAFA0346002B04D07B686D
:101ACC0004225A74012361E0786800F0A3FB0346FA
:101ADC00002B04D07B6804225A74012356E07B68E7
:101AEC001B685A687B681B6822F007025A607B6887
:101AFC009B68002B05D0274B1B6B264A23F0010358
:101B0C001363244BDB6A23F460727B689B68214966
:101B1C001343CB627B685B68B3F1FF3F03D07B68F8
:101B2C005B68FB600EE00120FFF7F4FEF860FB68D9
:101B3C00002B04D17B6804225A74012326E0FB6835
:101B4C00013BFB60FB681A0C7B681B6802F00F0200
:101B5C009A607B681B68FA6892B2DA60786800F069
:101B6C0081FB0346002B04D07B6804225A740123AA
:101B7C000CE07B680022DA737B6801225A737B6865
:101B8C0001229A737B6801225A740023184610377D
:101B9C00BD4680BD006C004090B587B000AFF860CA
:101BAC00B9607A6000237B6100233B61FB68002BEA
:101BBC0002D0BB68002B01D1012380E0FB681B7CA9
:101BCC00012B01D102237AE0FB6801221A74FB6815
:101BDC0002225A747B68002B13D1BB681B781A46FF
:101BEC004FF4616303FB02F2BB685B7819460B464A
:101BFC001B015B1A9B001344BA68927813447B61F7
:101C0C001EE0BB681B78184600F071FB03461A46B1
:101C1C004FF4616303FB02F4BB685B78184600F079
:101C2C0066FB03461A4613461B019B1A9B001C4479
:101C3C00BB689B78184600F05AFB034623447B6133
:101C4C007969F86800F07FFA0346002B07D0FB682F
:101C5C0004225A74FB6800221A7401232FE0FB68DB
:101C6C001B685A68FB681B6822F005025A60F8680A
:101C7C0000F090FA38613B69B3F1FF3F18D03A6934
:101C8C007B699A4214D23B6903F5A83303F5C07300
:101C9C003B613969F86800F096FA0346002B07D0CF
:101CAC00FB6804225A74FB6800221A74012306E0B4
:101CBC00FB6801225A74FB6800221A740023184630
:101CCC001C37BD4690BD000080B588B000AFF860F1
:101CDC00B9607A600023BB610023FB6100237B6148
:101CEC0000233B61FB68002B02D0BB68002B01D1A9
:101CFC000123B5E0FB681B685B6803F00403002B51
:101D0C0001D00123ACE0F86800F0EDF9B861BB69D3
:101D1C00554AA2FB0323DB0A3B61BA69524BA3FB76
:101D2C000213DB0A4FF4616101FB03F3D31A4F4A30
:101D3C00A2FB03235B09DAB2BB685A70BB694A4A3F
:101D4C00A2FB0312D20A4FF4616101FB02F29A1A50
:101D5C00464BA3FB021359090B461B015B1A9B0054
:101D6C00D11ACAB2BB689A703B69172B55D93B691B
:101D7C003F4AA2FB03231B097B6139693C4BA3FB44
:101D8C0001231A0913465B001344DB00CA1AD2B2B2
:101D9C00BB681A70F86800F0FDF9F861FB69B3F1E3
:101DAC00FF3F08D0FA69BB699A4204D9FA69BB694A
:101DBC00D31AFB6102E04FF0FF33FB617B692D4AC4
:101DCC0002FB03F3BA69D31ABB61B969F86800F076
:101DDC00BAF90346002B01D0012341E0FB69B3F1B2
:101DEC00FF3F0CD0FA69BB691344FB61F969F868D1
:101DFC0000F0E9F90346002B0AD0012330E0F96921
:101E0C00F86800F0E0F90346002B01D0012327E02D
:101E1C007969F86800F088FA03E03B69DAB2BB68CC
:101E2C001A707B68002B1AD0BB681B78184600F020
:101E3C0041FA03461A46BB681A70BB685B781846B1
:101E4C0000F038FA03461A46BB685A70BB689B7898
:101E5C00184600F02FFA03461A46BB689A70002306
:101E6C0018462037BD4680BDC5B3A29189888888A5
:101E7C00ABAAAAAA8051010080B588B000AFF86067
:101E8C00B9607A600023FB610023BB6100237B6196
:101E9C00FB68002B02D0BB68002B01D1012397E01B
:101EAC00FB681B7C012B01D1022391E0FB68012212
:101EBC001A74FB6802225A747B68002B0CD1BB6825
:101ECC00DA78FB68DA73BB685A78FB685A73BB68BC
:101EDC009A78FB689A731AE0BB68DB78184600F0B6
:101EEC0006FA03461A46FB68DA73BB685B78184639
:101EFC0000F0FDF903461A46FB685A73BB689B78E1
:101F0C00184600F0F4F903461A46FB689A73FB680E
:101F1C00DB7B1846FB68597BFB689B7B1A4600F001
:101F2C00DFFA03461A46FB681A73FB681A7BBB6818
:101F3C001A70F86800F0D7F8F861FB69264AA2FB22
:101F4C000323DB0A7B617B69182B3AD97B69234A13
:101F5C00A2FB03231B09224A02FB03F3FA69D31ADF
:101F6C00FB61F969F86800F0EEF80346002B07D026
:101F7C00FB6804225A74FB6800221A74012327E0C0
:101F8C00F86800F007F9B861BB69B3F1FF3F18D0EE
:101F9C00BA69FB699A4214D2BB6903F5A83303F5FD
:101FAC00C073BB61B969F86800F00DF90346002BEA
:101FBC0007D0FB6804225A74FB6800221A740123B0
:101FCC0006E0FB6801225A74FB6800221A74002395
:101FDC0018462037BD4680BDC5B3A291ABAAAAAAAC
:101FEC008051010080B586B000AFF860B9607A60AE
:101FFC0007F1140300210A461A800A469A70FB68FE
:10200C00002B02D0BB68002B01D101233AE007F171
:10201C00140300221946F868FFF756FE0346002BFE
:10202C0001D001232EE0FB681A7BBB681A70FB6899
:10203C00DA7BBB68DA70FB685A7BBB685A70FB684A
:10204C009A7BBB689A707B68002B1AD0BB68DB78D4
:10205C00184600F02FF903461A46BB68DA70BB68C5
:10206C005B78184600F026F903461A46BB685A708E
:10207C00BB689B78184600F01DF903461A46BB68EE
:10208C009A70002318461837BD4680BD80B584B0C1
:10209C0000AF78600023FB607B68002B01D101232B
:1020AC001DE07B681B685A687B681B6822F008027D
:1020BC005A60FEF7E7FCF86009E0FEF7E3FC024625
:1020CC00FB68D31AB3F57A7F01D9032307E07B6849
:1020DC001B685B6803F00803002BEED00023184646
:1020EC001037BD4680BD80B487B000AF7860002348
:1020FC007B8200233B820023FB8100237B617B6876
:10210C001B689B697B827B681B68DB69FB817B6836
:10211C001B689B693B827A8A3B8A9A4208D03B8A2D
:10212C001A047B681B68DB699BB213437B6104E078
:10213C007B8A1A04FB8913437B617B6918461C3725
:10214C00BD4680BC704780B584B000AF7860396004
:10215C000023FB73786800F05DF80346002B02D077
:10216C000123FB7311E07B681B683A68120C9A61BF
:10217C007B681B683A6892B2DA61786800F072F892
:10218C000346002B01D00123FB73FB7B1846103751
:10219C00BD4680BD80B485B000AF78600023FB8164
:1021AC000023BB817B681B681B6AFB817B681B68F7
:1021BC005B6ABB81FB891A04BB891343184614372D
:1021CC00BD4680BC704780B584B000AF7860396084
:1021DC000023FB73786800F01DF80346002B02D037
:1021EC000123FB7311E07B681B683A68120C1A62BE
:1021FC007B681B683A6892B25A62786800F032F8D1
:10220C000346002B01D00123FB73FB7B18461037D0
:10221C00BD4680BD80B584B000AF78600023FB6004
:10222C00FEF730FCF86009E0FEF72CFC0246FB6878
:10223C00D31AB3F57A7F01D903230FE07B681B68AF
:10224C005B6803F02003002BEED07B681B685A6898
:10225C007B681B6842F010025A6000231846103746
:10226C00BD4680BD80B584B000AF78600023FB60B4
:10227C007B681B685A687B681B6822F010025A60E6
:10228C00FEF700FCF86009E0FEF7FCFB0246FB6879
:10229C00D31AB3F57A7F01D9032307E07B681B6857
:1022AC005B6803F02003002BEED000231846103798
:1022BC00BD4680BD80B485B000AF0346FB710023E2
:1022CC00FB6005E0FB680133FB60FB790A3BFB71AB
:1022DC00FB79092BF6D8FB68DBB21B01DAB2FB7970
:1022EC001343DBB218461437BD4680BC704780B42C
:1022FC0085B000AF0346FB710023FB60FB791B0923
:10230C00DBB21A4613469B0013445B00FB60FB795F
:10231C0003F00F03DAB2FB68DBB21344DBB21846EE
:10232C001437BD4680BC704780B586B000AF78606E
:10233C00396000237B6100233B610023FB60002399
:10234C00BB607B68DB7B7B617B685B7B3B617B6819
:10235C009B7BFB600023BB606FE03B69012B11D0C2
:10236C003B69032B0ED03B69052B0BD03B69072B2C
:10237C0008D03B69082B05D03B690A2B02D03B697E
:10238C000C2B17D1FB681E2B03D8FB680133FB60A9
:10239C0050E03B690C2B05D03B6901333B610123B9
:1023AC00FB6047E001233B610123FB607B69013348
:1023BC007B613FE03B69042B08D03B69062B05D0C1
:1023CC003B69092B02D03B690B2B0CD1FB681D2BF5
:1023DC0003D8FB680133FB602CE03B6901333B61A4
:1023EC000123FB6026E03B69022B23D1FB681B2BEE
:1023FC0003D8FB680133FB601CE0FB681C2B11D17C
:10240C007B699BB2184600F039F80346002B03D0C9
:10241C00FB680133FB600DE03B6901333B61012339
:10242C00FB6007E0FB681D2B04D13B6901333B616A
:10243C000123FB60BB680133BB60BA683B689A42FE
:10244C008BD37B69DAB27B68DA733B69DAB27B686F
:10245C005A73FB68DAB27B689A733B69DBB2FA6831
:10246C00D2B21946786900F03BF803461A467B68ED
:10247C001A7300BF1837BD4680BD000080B483B00E
:10248C0000AF0346FB80FB8803F003039BB2002BD9
:10249C0001D000231DE0FB88104AA2FB0312520955
:1024AC00642101FB02F29B1A9BB2002B01D0012389
:1024BC000FE0FB88094AA2FB0312D2094FF4C87142
:1024CC0001FB02F29B1A9BB2002B01D1012300E00D
:1024DC00002318460C37BD4680BC70471F85EB5156
:1024EC0080B485B000AF78600B46FB701346BB70B0
:1024FC000023BB600023FB607B6803F5FA63BB60C1
:10250C00FB78022B2DD8FA7813465B001344DB00C2
:10251C009B1A2C4AA2FB03235A08BB781A44BB68AB
:10252C001A44BB68013B9B081A44BB68013B264913
:10253C00A1FB03135B09D21ABB68013B2249A1FB27
:10254C000313DB0913441A1D204BA3FB0213D11AEE
:10255C0049080B4499080B46DB005B1AD31AFB6045
:10256C0029E0FA7813465B001344DB009B1A154AEA
:10257C00A2FB03235A08BB781A44BB681A44BB68F5
:10258C009B081A44BB681049A1FB03135B09D21AC0
:10259C00BB680D49A1FB0313DB0913449A1C0B4BBD
:1025AC00A3FB0213D11A49080B4499080B46DB0014
:1025BC005B1AD31AFB60FB68DBB218461437BD46B6
:1025CC0080BC7047398EE3381F85EB512549922426
:1025DC0003460244934200D1704703F8011BF9E70C
:1025EC0070B500260C4D0D4C641BA410A64209D1ED
:1025FC0000F01AF800260A4D0A4C641BA410A642DF
:10260C0005D170BD55F8043B98470136EEE755F8F7
:10261C00043B98470136F2E7A42C0008A42C0008D0
:10262C00A42C0008A82C0008F8B500BFF8BC08BC06
:10263C009E467047F8B500BFF8BC08BC9E46704774
:10264C00446174653A323020202D20202D2020004A
:10265C0054696D653A20203A20203A202000000071
:10266C00434E543A0000000000000000000000003F
:10267C000000000000000000000000F80000000056
:10268C00000000333000000000100C06100C060097
:10269C00000000000000000040C07840C0784000FE
:1026AC00043F04043F040400007088FC0830000060
:1026BC00001820FF211E0000F008F000E0180000B8
:1026CC0000211C031E211E0000F008887000000071
:1026DC001E2123241927211010160E0000000000C3
:1026EC000000000000000000000000E018040200E0
:1026FC00000000071820400000020418E000000051
:10270C000040201807000000404080F0804040004E
:10271C000202010F01020200000000F000000000A4
:10272C000101011F01010100000000000000000078
:10273C0080B07000000000000000000000000000ED
:10274C000001010101010101000000000000000076
:10275C000030300000000000000000008060180411
:10276C00006018060100000000E010080810E000EE
:10277C00000F102020100F00001010F800000000B7
:10278C000020203F202000000070080808887000FE
:10279C00003028242221300000300888884830007E
:1027AC000018202020110E000000C02010F800009E
:1027BC0000070424243F240000F808888808080037
:1027CC000019212020110E0000E01088881800004C
:1027DC00000F112020110E0000380808C83808001E
:1027EC000000003F0000000000708808088870009E
:1027FC00001C222121221C0000E010080810E0001F
:10280C000000312222110F00000000C0C0000000A7
:10281C0000000030300000000000008000000000CC
:10282C0000008060000000000000804020100800C4
:10283C00000102040810200040404040404040008D
:10284C000404040404040400000810204080000068
:10285C000020100804020100007048080808F0006D
:10286C000000003036010000C030C828E810E0003D
:10287C000718272423140B000000C038E0000000C8
:10288C00203C23020227382008F888888870000032
:10289C00203F202020110E00C03008080808380006
:1028AC00071820202010080008F808080810E0007D
:1028BC00203F202020100F0008F88888E80810001E
:1028CC00203F20202320180008F88888E8081000F2
:1028DC00203F200003000000C0300808083800002A
:1028EC0007182020221E020008F808000008F8082B
:1028FC00203F210101213F20000808F808080000B2
:10290C000020203F2020000000000808F8080800E4
:10291C00C08080807F00000008F888C0281808005C
:10292C00203F20012638200008F808000000000095
:10293C00203F20202020300008F8F800F8F808008C
:10294C00203F003F003F200008F830C00008F80886
:10295C00203F200007183F00E01008080810E00096
:10296C000F10202020100F0008F808080808F000AD
:10297C00203F210101010000E01008080810E000D0
:10298C000F18242438504F0008F888888888700065
:10299C00203F2000030C3020007088080808380005
:1029AC000038202121221C00180808F808081800FB
:1029BC000000203F2000000008F808000008F8087C
:1029CC00001F202020201F000878880000C838082D
:1029DC00000007380E010000F80800F80008F800A5
:1029EC00033C0700073C030008186880806818083F
:1029FC0020302C03032C30200838C800C8380800BD
:102A0C000000203F2000000010080808C83808000B
:102A1C002038262120201800000000FE02020200AF
:102A2C000000007F40404000000C30C0000000005F
:102A3C00000000010638C00000020202FE00000087
:102A4C00004040407F00000000000402020204002D
:102A5C00000000000000000000000000000000006A
:102A6C008080808080808080000202040000000052
:102A7C00000000000000000000008080808000004A
:102A8C000019242222223F2008F800808000000038
:102A9C00003F112020110E000000008080800000FB
:102AAC00000E112020201100000000808088F8000A
:102ABC00000E112020103F2000008080808000003C
:102ACC00001F222222221300008080F088888818A0
:102ADC000020203F202000000000808080808000AB
:102AEC00006B94949493600008F800808080000040
:102AFC00203F210000203F2000809898000000001B
:102B0C000020203F2020000000000080989800004A
:102B1C0000C08080807F000008F80000808080006A
:102B2C00203F24022D302000000808F8000000008F
:102B3C000020203F2020000080808080808080004A
:102B4C00203F20003F20003F8080008080800000DC
:102B5C00203F210000203F2000008080808000006A
:102B6C00001F202020201F0080800080800000009B
:102B7C0080FFA12020110E000000008080808000CA
:102B8C00000E112020A0FF808080800080808000BB
:102B9C0020203F21200001000000808080808000E8
:102BAC000033242424241900008080E0808000005D
:102BBC000000001F202000008080000000808000AA
:102BCC00001F202020103F2080808000008080800B
:102BDC0000010E300806010080800080008080809B
:102BEC000F300C030C300F000080800080808000C0
:102BFC000020312E0E3120008080800000808080EB
:102C0C0080818E701806010000808080808080009A
:102C1C000021302C2221300000000000807C0202B8
:102C2C0000000000003F404000000000FF000000DA
:102C3C0000000000FF0000000002027C8000000089
:102C4C000040403F000000000006010102020404A5
:102C5C000000000000000000000000000000000068
:102C6C000102030406070809000000000102030426
:102C7C0002030405060708090A0B0C0D0E0F1010B1
:102C8C000102000002030405060708090A0B0C0DDB
:082C9C000E0F101001020000F0
:042CA40031010008F2
:042CA8000D01000812
:0C2CAC0000127A0010000000010000007F
:040000050800099551
:00000001FF
