:020000040800F2
:100000003004002001010008790B0008A509000850
:10001000D10A000875050008271700080000000035
:10002000000000000000000000000000491100086E
:100030007905000800000000F90F000819130008F6
:100040001B0100081B0100081B0100081B01000820
:100050001B0100081B010008C10500086506000817
:100060001B0100081B0100081B0100081B01000800
:100070001B0100081B0100081B0100081B010008F0
:100080001B0100081B0100081B0100081B010008E0
:100090001B0100081B0100081B010008A90600083D
:1000A0001B0100081B0100081B0100081B010008C0
:1000B0001B0100081B0100081B0100081B010008B0
:1000C0001B0100081B0100081B0100081B010008A0
:1000D0001B010008FD1400081B0100081B0100089B
:1000E000190600081B0100081B010008DFF80CD0EE
:1000F00000F01EF9004800478D170008300400206A
:100100000648804706480047FEE7FEE7FEE7FEE7B1
:10011000FEE7FEE7FEE7FEE7FEE7FEE71D13000849
:10012000ED0000082DE9FE4F81EA030404F00044CD
:1001300021F0004100944FF0000B23F0004350EAFF
:1001400001045ED052EA03045BD0C3F30A54C1F346
:100150000A552C44A4F2F3340194A0FB0254C1F3D9
:10016000130141F48011C3F3130343F4801301FB23
:10017000024400FB034E840A970A44EA815447EA8A
:100180008357A4FB076802958D0A05FB07854FEA94
:10019000932C04FB0C542705029D4FEA065847EAAE
:1001A0001637B5EB08056EEB070C870E920E47EA83
:1001B000811742EA8312A7FB0201B6EB0B0164EB45
:1001C00000042B0D43EA0C335E1844EB1C50DA4656
:1001D0005146E7FB0201C5F313044FEA0B3343EA30
:1001E00014534FEA0432019C43EA0603A4F10C04C1
:1001F0000294009CCDE900B400F04BF803B0BDE8D8
:10020000F08F00200146F9E70EB540F2334102912C
:100210000021CDE900110A460B4600F03AF803B080
:1002200000BDC1F30A5210B5C1F3130140F2FF3310
:1002300041F480119A4201DA002010BD40F23343AC
:100240009A42A2F2334203DC524200F003F810BD9E
:10025000904010BD202A04DB203A21FA02F0002150
:10026000704721FA02F3D040C2F1200291400843C6
:100270001946704710B5141E73F1000408DA401CCB
:1002800041F1000192185B411A4301D120F00100B5
:1002900010BD2DE9F04D92469B4611B1B1FA81F2A5
:1002A00002E0B0FA80F22032904600F053F80446A3
:1002B0000F4640EA0A0041EA0B0153465A460843FA
:1002C00013D0114653EA010019D0C8F1400250463C
:1002D000FFF7C0FF05460E4650465946424600F01D
:1002E00039F8084305D0012004E020463946BDE82E
:1002F000F08D0020054346EAE0762C4337430A9808
:100300006305E40AA0EB08000022FD0A44EA475412
:100310000A3002D500200146E9E7010510196941BC
:10032000DDE9084500196941BDE8F04DA2E700008C
:10033000064C074D06E0E06840F0010394E8070032
:1003400098471034AC42F6D3FFF7D4FE7020000873
:1003500090200008202A04DB203A00FA02F1002055
:1003600070479140C2F1200320FA03F319439040F3
:10037000704721B1826842F00102826003E0826826
:1003800022F0010282607047014600208A6802F074
:1003900004020AB1012000E000207047014600205D
:1003A0008A6802F008020AB1012000E000207047CC
:1003B00030B502460020002350680F4C20400D79D4
:1003C0000C6844EA05242043506090680B4C2040A0
:1003D000D1E902542C434D7944EA4504204390600E
:1003E000D06A20F470000C7C641EE4B2234340EA1F
:1003F0000350D06230BD0000FFFEF0FFFDF7F1FFBB
:10040000F0B504460D4600200021092D11DDE068FD
:10041000A5F10A0606EB4607072606FA07F1884308
:10042000A5F10A0606EB460603FA06F10843E0606A
:100430000CE0206905EB4507072606FA07F188431B
:1004400005EB450603FA06F108432061072A0FDA97
:10045000606B561E06EB86071F2606FA07F18843D7
:10046000561E06EB860605FA06F10843606322E095
:100470000D2A0FDA206BD61F06EB86071F2606FA19
:1004800007F18843D61F06EB860605FA06F10843F6
:10049000206310E0E06AA2F10D0606EB86071F2636
:1004A00006FA07F18843A2F10D0606EB860605FA67
:1004B00006F10843E062F0BD816841F00801816007
:1004C0007047816841F004018160704700B587B0D2
:1004D0000121480200F0BEFD0121042000F0BAFD18
:1004E0000121084600F096FD4FF4004000F086FD23
:1004F00000208DF81B000220ADF8180003208DF8B5
:100500001A0006A9194800F0A7F90523012211468F
:100510001748FFF775FF00208DF8090004904FF48D
:10052000602003900020019001208DF8140000202D
:100530008DF8080001A90E48FFF73AFF01210C4889
:10054000FFF717FF0A48FFF7B7FF00BF0848FFF79C
:1005500025FF0128FAD00648FFF7B3FF00BF044883
:10056000FFF712FF0128FAD007B000BD00080140D4
:100570000024014000BFFEE7704700B5034603E0DA
:100580004FF47A7000F005F8181EA3F10103F7D1BB
:1005900000BD00EBC001C9004FF0E0225161002115
:1005A00091610521116100BF4FF0E021096901F45B
:1005B00080310029F8D004214FF0E022116170470A
:1005C00010B5012000F0CAF800B31E20FFF7D5FFD8
:1005D000012000F0C3F8B0B107200D49088000BF2A
:1005E00001210C4800F0C3F90028F9D01420FFF7CE
:1005F000C4FF00BF0121074800F0B9F90028F9D075
:100600001420FFF7BAFF012000F0A2F810BD00008F
:100610001A0000200008014010B54FF4006000F0FF
:100620009DF8C8B11E20FFF7A8FF4FF4006000F04E
:1006300095F868B106200949088000BF4FF40061B1
:10064000074800F094F90028F8D01420FFF795FF30
:100650004FF4006000F07CF810BD00001A0000208C
:10066000000C014010B5022000F078F8B0B11E2057
:10067000FFF783FF022000F071F860B10520084900
:10068000088000BF0221074800F071F90028F9D066
:100690001420FFF772FF022000F05AF810BD00008E
:1006A0001A000020000C014010B5402000F056F860
:1006B00040B31E20FFF761FF402000F04FF8F0B17B
:1006C0001F48007840B902201E49088001201E49B9
:1006D00008801B49087008E002201A49088004209D
:1006E0001949088000201649087000BF40211748AA
:1006F00000F03DF90028F9D01420FFF73EFF40201C
:1007000000F026F8802000F029F8B8B11E20FFF78D
:1007100034FF802000F022F868B180210B4800F0FF
:1007200026F940B9022007490880012006490880BF
:100730006420FFF722FF802000F00AF810BD0000BF
:100740001C0000201A0000201E00002000080140AC
:100750000149086070470000140401400146002070
:100760000022074B1B6803EA0102054B14331B6888
:100770000B4013B10AB1012000E0002070470000D7
:1007800000040140002123498279002A3AD00A4618
:10079000126803689A430B461A600A1D12680368C0
:1007A0009A430B1D1A60027911440A6803681A43C0
:1007B0000A60184A0832126803689A43154B0833D6
:1007C0001A601A1D126803689A43124B0C331A60A0
:1007D0004279102A0ED11A1F126803681A430D4B72
:1007E00008331A601A1D126803681A43094B0C3348
:1007F0001A600DE00749427911440A6803681A43F8
:100800000A6005E0027911440A6803689A430A60A5
:10081000704700000004014030B500228B071C0F18
:100820000F2303FA04F20B4B8C1053F8243093433C
:10083000084C8D1044F8253023468C1053F8243092
:100840008C07240F00FA04F42343024C8D1044F863
:10085000253030BD080001402DE9F0410246002559
:100860000026002000230024002791F803C00CF08C
:100870000F0591F803C00CF0100CBCF1000F03D071
:1008800091F802C04CEA050591F800C0BCF1000FD8
:1008900031D0146800202BE04FF0010C0CFA00F36B
:1008A000B1F800C00CEA03069E4220D183004FF04D
:1008B0000F0C0CFA03F7BC4305FA03FC4CEA0404E2
:1008C00091F803C0BCF1280F06D14FF0010C0CFACF
:1008D00000FCC2F814C00AE091F803C0BCF1480F54
:1008E00005D14FF0010C0CFA00FCC2F810C0401CFE
:1008F0000828D1D31460B1F800C0BCF1FF0F34DD7B
:10090000546800202EE000F1080C4FF0010808FAAE
:100910000CF3B1F800C00CEA03069E4221D183001B
:100920004FF00F0C0CFA03F7BC4305FA03FC4CEA3A
:10093000040491F803C0BCF1280F05D100F1080CA4
:1009400008FA0CF8C2F8148091F803C0BCF1480F03
:1009500007D100F1080C4FF0010808FA0CF8C2F8B2
:100960001080401C0828CED35460BDE8F0810246B8
:10097000002093680B400BB1012000E0002070477D
:1009800002460020D3680B400BB1012000E000209C
:10099000704741617047016170470AB1016100E031
:1009A0004161704700BFFEE71FB50121082000F03C
:1009B00051FB0121042000F04DFB0121084600F00D
:1009C00049FB48208DF80F0040F60200ADF80C00FE
:1009D00003208DF80E0003A93B48FFF73DFF482098
:1009E0008DF80F004120ADF80C0003208DF80E00AB
:1009F00003A93648FFF730FF01210846FFF70CFF37
:100A000006210020FFF708FF00210846FFF704FF3A
:100A10000B210120FFF700FF0220019001208DF83B
:100A20000A0000208DF808000C208DF8090001A8AC
:100A3000FFF7A8FE4020019001A8FFF7A3FE4FF4A6
:100A40000060019001A8FFF79DFE0120019001A820
:100A5000FFF798FE07208DF8000001208DF80300B5
:100A60008DF801008DF80200684600F087F8172025
:100A70008DF8000001208DF803008DF801000220A0
:100A80008DF80200684600F079F828208DF8000003
:100A900001208DF803008DF8010003208DF802007D
:100AA000684600F06BF806208DF8000001208DF8F4
:100AB000030002208DF8010001208DF80200684635
:100AC00000F05CF81FBD0000000C01400008014070
:100AD00000BFFEE708B50121042000F0BBFA10209A
:100AE0008DF803003020ADF8000003208DF80200DF
:100AF00069460948FFF7B0FE00F01EFA10208DF895
:100B000003000001ADF8000003208DF802006946E3
:100B10000148FFF7A1FE08BD0008014010B54FF4E1
:100B200080710248FFF735FF10BD0000000801404A
:100B300010B54FF480710248FFF72DFF10BD000083
:100B4000000801402DE9F04704462046FFF75CFB12
:100B50000746074A074BFFF7E5FA0546FFF761FB33
:100B60001FFA80F9484600F033FABDE8F08700002C
:100B7000CDCCCCCCCCCC1C407047000070B5002153
:100B800000230F22C47804B3154C246804F4E064F5
:100B9000C4F5E064210AC1F10403CA40447804FAB0
:100BA00003F184781440214309010E4C0678A155C5
:100BB000047804F01F050124AC4005786D11AD00E8
:100BC00005F1E025C5F8004109E0047804F01F05AF
:100BD0000124AC40044D0678761145F8264070BDDE
:100BE0000CED00E000E400E080E100E00249014398
:100BF000024A1160704700000000FA050CED00E0A9
:100C000070B500240EE00021204600F0F4F8002525
:100C100004E0002000F080F9681CC5B2802DF8DBEC
:100C2000601CC4B2082CEEDB70BD000008B50121C9
:100C3000082000F00FFA14208DF8030003208DF82F
:100C400002004FF48070ADF8000069460A48FFF7D3
:100C500003FE4FF40070ADF8000069460648FFF748
:100C6000FBFD012211020448FFF797FE0122510209
:100C70000148FFF792FE08BD000C014070B5054623
:100C8000002419E080202041284008B1012000E024
:100C9000002002464FF400710E48FFF77EFE01224D
:100CA00011020C48FFF779FE00224FF480710948C9
:100CB000FFF773FE601CC4B2082CE3DB01221102B3
:100CC0000448FFF76AFE00224FF480710148FFF7E5
:100CD00064FE70BD000C014010B5012251020A48AB
:100CE000FFF75BFE012211020748FFF756FE0022C4
:100CF0004FF400710448FFF750FE00224FF480715A
:100D00000148FFF74AFE10BD000C014010B500225B
:100D10004FF400710648FFF740FE0122110204481B
:100D2000FFF73BFE012251020148FFF736FE10BDDE
:100D3000000C014070B5002406E0002500E06D1CA9
:100D4000B5F57A7FFBD3641CB4F57A7FF5D3FFF752
:100D50006DFFAE2000F0D0F8D52000F0CDF8802057
:100D600000F0CAF8A82000F0C7F83F2000F0C4F84F
:100D7000D32000F0C1F8002000F0BEF8402000F0C1
:100D8000BBF8A12000F0B8F8C82000F0B5F8DA20D0
:100D900000F0B2F8122000F0AFF8812000F0ACF8BB
:100DA000CF2000F0A9F8D92000F0A6F8F12000F03B
:100DB000A3F8DB2000F0A0F8302000F09DF8A4207C
:100DC00000F09AF8A62000F097F88D2000F094F833
:100DD000142000F091F8AF2000F08EF8FFF710FF1C
:100DE00070BD10B50246012000E050430B1EA1F17A
:100DF0000101FAD110BD70B505460C4645F0B000B2
:100E000000F07AF8102141EA141000F075F804F0AF
:100E10000F0000F071F870BD2DE9F04105460E4657
:100E20001746721ED206110E6A1E5206100EFFF7EA
:100E3000E2FF002409E0A7F12001134A02EB0111AF
:100E4000085D00F069F8601CC4B2082CF3DB721E68
:100E5000D206110E6A1E012303EB4202D0B2FFF745
:100E6000CAFF00240BE0A7F12001074A02EB0112A0
:100E700004F10801505C00F04FF8601CC4B2082C6B
:100E8000F1DBBDE8F0810000801A00082DE9F04791
:100E900080460E4617461D46002415E0281B411EBD
:100EA0000A20FFF79EFFB7FBF0F00A21B0FBF1F23A
:100EB00001FB120000F130093019C1B24A46404628
:100EC000FFF7AAFF601CC4B2AC42E7DBBDE8F087C5
:100ED0002DE9F04107460E461546002407E02A5D3D
:100EE0003019C1B23846FFF797FF601CC4B2285DC5
:100EF0000028F4D1BDE8F08110B50446FFF7ECFE00
:100F00007820FFF7BBFE0020FFF7B8FE2046FFF772
:100F1000B5FEFFF7FBFE10BD10B50446FFF7DCFE83
:100F20007820FFF7ABFE4020FFF7A8FE2046FFF732
:100F3000A5FEFFF7EBFE10BD00B589B0012104202E
:100F400000F088F80121084600F074F818208DF8A8
:100F500023000420ADF8200003208DF8220008A90A
:100F60001A48FFF779FC4FF0804000F013FA002098
:100F7000ADF81A00ADF816004FF43470ADF8180053
:100F80006420ADF8140000208DF81C0005A94FF076
:100F9000804000F061FA01A800F052FA6020ADF83C
:100FA00004000020ADF80C000120ADF80600002080
:100FB000ADF80A0001A94FF0804000F0F1F90121DD
:100FC000880700F0DBF909B000BD0000000801400F
:100FD00010B5044621464FF0804000F03BFA10BDAA
:100FE00010B510210348FFF7D4FC20210148FFF77A
:100FF000D2FC10BD000801407047000001460020EF
:10100000034A506820F44040084350607047000095
:101010000010024029B1064A52690243044B5A614A
:1010200004E0034A52698243014B5A617047000051
:101030000010024029B1064AD2690243044BDA612A
:1010400004E0034AD2698243014BDA617047000031
:101050000010024029B1064A92690243044B9A618A
:1010600004E0034A92698243014B9A617047000091
:101070000010024030B500210022002400232D4D35
:101080006D6805F00C0121B1042905D0082923D190
:1010900005E0294D056022E0274D05601FE0254D44
:1010A0006D6805F47012234D6D6805F480340225D7
:1010B00005EB92421CB9214D554305600BE01D4DD7
:1010C0006D6805F400351DB11C4D5543056002E007
:1010D000194D5543056002E0174D056000BF00BF84
:1010E000144D6D6805F0F0010909154D6B5C05683C
:1010F000DD4045600F4D6D6805F4E061090A104D53
:101100006B5C4568DD4085600A4D6D6805F4605193
:10111000C90A0B4D6B5C4568DD40C560054D6D68C7
:1011200005F44041890B074D6B5CC568B5FBF3F5D1
:10113000056130BD0010024000127A0000093D0038
:1011400000000020100000207047000001480078D7
:10115000704700001600002000B587B00121042070
:10116000FFF778FF01218803FFF774FF18208DF83F
:101170001B004FF40070ADF8180003208DF81A0022
:1011800006A92148FFF768FB48208DF81B004FF4A3
:101190008060ADF8180003208DF81A0006A91A48DF
:1011A000FFF75AFB4FF4165002900020ADF81400E0
:1011B0000C20ADF812000020ADF81000ADF80E00C4
:1011C000ADF80C0002A9114800F038FA012240F2F3
:1011D00025510E4800F00CFA4FF4A060FFF706FD11
:1011E00025208DF8040001208DF8070000208DF8DF
:1011F00005008DF8060001A8FFF7C0FC0121034897
:1012000000F0B3F907B000BD00080140003801400C
:1012100010B504462146054800F081FA00BF802140
:10122000024800F0AEF90028F9D010BD00380140A6
:1012300010B500F001F810BD0CB500200190009031
:101240003348006840F480303149086000BF3048BE
:10125000006800F4003000900198401C0190009854
:1012600018B90198B0F5A06FF1D12948006800F4D1
:10127000003010B10120009001E0002000900098A3
:10128000012843D12348006840F01000214908603C
:101290000846006820F0030008600846006840F037
:1012A000020008601A4840681949486008464068CA
:1012B00048600846406840F48060486008464068DE
:1012C00020F47C1048600846406840F4E81048600C
:1012D0000846006840F08070086000BF0C48006855
:1012E00000F000700028F9D00948406820F00300A1
:1012F000074948600846406840F00200486000BF67
:101300000348406800F00C000828F9D10CBD00002B
:1013100000100240002002407047000010B5134842
:10132000006840F001001149086008464068104913
:1013300008400E494860084600680E4908400B49BD
:1013400008600846006820F480200860084640686D
:1013500020F4FE0048604FF41F008860FFF768FF2C
:101360004FF000600449086010BD0000001002400A
:101370000000FFF8FFFFF6FE08ED00E021B1028853
:1013800042F00102028004E002884FF6FE731A4028
:101390000280704701894FF6F87211400181704751
:1013A00070B5002400220023058C4FF6FF663540FF
:1013B0000584028C8388848B4FF68F752C404FF602
:1013C000FC752C400D882C434FF6FF552A400D89A3
:1013D0004FF6FF7606EA05252A434D8806EA0525DD
:1013E0002A43154DA84202D0144DA8421DD14FF2F8
:1013F000FF752A404D894FF6FF7606EA05252A43F8
:101400004FF6FF352A408D8806EA05252A434EF619
:10141000FF752B404DF6FF752B408D8906EA0515AB
:101420002B43CD8906EA05152B4383808483CD8821
:101430008587028470BD0000002C0140003401400B
:101440000021018041808180C180018141818181B1
:10145000C181704781877047002202881D4B9842E6
:101460000ED01D4B98420BD0B0F1804F08D01B4BD3
:10147000984205D01A4B984202D01A4B984204D198
:101480004FF68F731A404B881A43174B984207D078
:10149000164B984204D04FF6FF431A40CB881A43AC
:1014A00002808B8883850B8803850A4B98420BD07A
:1014B000094B984208D00E4B984205D00D4B9842EC
:1014C00002D00D4B984201D10B7A0386012383820F
:1014D00070470000002C014000340140000400402F
:1014E00000080040000C00400010004000140040C4
:1014F00000400140004401400048014010B512E0A6
:101500000D4800F007F90D49087001200C490870DA
:1015100002200C49088003200B49088040F2255125
:10152000054800F013F840F22551034800F036F862
:101530000128E5D010BD0000003801401600002051
:10154000170000201A0000201E00002010B5002205
:10155000002340F66A14A14200D100BF0A12012400
:101560009440A3B2DC43048010BD21B1828942F4CF
:101570000052828104E082894DF6FF731A40828115
:10158000704702460020B1F5007F00D100BF1388EC
:101590000B400BB1012000E00020704770B50246FF
:1015A000002400230025002040F66A16B14200D135
:1015B00000BFC1F3421501F01F03012606FA03F331
:1015C000012D02D19689334006E0022D02D1168A00
:1015D000334001E0968A33400C12012606FA04F4E7
:1015E0001688344013B10CB1012000E0002070BD1A
:1015F000F0B50346002400260025002040F66A17B7
:10160000B94200D100BF1846C1F3421401F01F06D1
:10161000012707FA06F5012C01D10C3004E0022C59
:1016200001D1103000E014301AB107682F43076071
:1016300002E00768AF430760F0BD00002DE9F04706
:1016400086B005460E460024A24600BFA1460027EC
:10165000B08900B100BF2F462C8A4CF6FF700440C1
:10166000F08804432C82AC894EF6F3100440B08815
:1016700031890843718908430443AC81AC8A4FF631
:10168000FF400440B0890443AC8201A8FFF7F2FC9C
:101690001F48874202D1DDF810A001E0DDF80CA060
:1016A000A88900F4004040B10AEBCA0000EB0A1020
:1016B00031684900B0FBF1F807E00AEBCA0000EB23
:1016C0000A1031688900B0FBF1F86420B8FBF0F033
:1016D00004012009642101FB1089A88900F400405D
:1016E00040B1322000EBC900B0FBF1F000F0070080
:1016F000044308E0322000EB09106421B0FBF1F054
:1017000000F00F0004432C8106B0BDE8F087000014
:101710000038014001468888C0F308007047C1F3D3
:1017200008028280704700BFFEE70000014A0249BC
:1017300000F013B87D1700082800002002E008C858
:10174000121F08C1002AFAD170477047002001E03B
:1017500001C1121F002AFBD170472DE9F041164646
:101760000F460446002503E03946B047641C6D1C53
:1017700020780028F8D12846BDE8F08170B50446ED
:101780000D46E0B2FFF744FD204670BDFFF7D2FAE8
:10179000FFF7A0F9FFF7E0FCFFF706F9FEF796FE6A
:1017A00014208449088003E183480088082818D25F
:1017B000DFE800F00418363D97A2B8CE7FA20521DD
:1017C0000220FFF785FBFFF7A9F904207A4908807A
:1017D000FFF706FC77480088FFF7B4F90020794945
:1017E0000870E4E078A201210846FFF771FB78A2B7
:1017F00001210220FFF76CFB03236E4802880721BA
:101800000120FFF743FB01237348027805210220E2
:10181000FFF73CFBFFF78CF901206A490870C6E02E
:10182000FFF7EEF96D48008863490880BFE0FFF7D5
:101830008DFC6B49087008460078012807D169A023
:10184000FFF774FF01205C4908805E490870644816
:101850000078022808D166A0FFF768FF04205649E7
:1018600008800020574908705D48007803280FD190
:1018700062A0FFF75BFF05204F49088051480078C0
:1018800018B904205549088002E001205349088016
:101890005348007804280FD15CA0FFF747FF0620CB
:1018A000454908804748007818B904204B4908800A
:1018B00002E00120494908804948007805280FD1F5
:1018C00057A0FFF733FF07203B4908803D480078C9
:1018D00018B904204149088002E001203F490880EE
:1018E00065E0FFF71BF953A205210320FFF7F0FA8B
:1018F0000020344908705AE02E480088642805DA30
:101900002C48008814302B49088002E04CA0FFF7D7
:101910000DFF28480088FFF715F930480088264950
:10192000088044E023480088002805DD214800881D
:1019300014382049088002E047A0FFF7F7FE1D4851
:101940000088FFF7FFF8254800881B4908802EE033
:1019500010214948FFF714F848490870FFF7DEF8EE
:101960004FF47A70FEF709FE4448007801280DD143
:10197000002210214048FFF710F8012220213E48A4
:10198000FFF70BF80020144908700CE0002220211A
:101990003948FFF702F8012210213748FEF7FDFF12
:1019A00001200D49087002200349088000BF00BFD4
:1019B000FAE60000140000201A00002057656C634E
:1019C0006F6D65001C00002053706565643A00006F
:1019D0004449523A00000000220000201E0000206E
:1019E000190000205354415254204F4B0D0A00005F
:1019F00053544F50204F4B0D0A0000005370656543
:101A00006420416464204F4B0D0A000053706565EB
:101A100064205375627472616374204F4B0D0A0029
:101A20004D6F746F722052657665727365204F4BEF
:101A30000D0A00004D6F746F72204F464600000083
:101A40004D4158205370656564212043616E2774B1
:101A500020416464210D0A004D494E205370656594
:101A600064212043616E2774205375627472616330
:101A700074210D0A0000000000080140230000202E
:101A80000000000000000000000000000000000056
:101A9000000000F8000000000000003330000000EB
:101AA00000100C06100C06000000000000000000F2
:101AB00040C07840C0784000043F04043F04040064
:101AC000007088FC08300000001820FF211E000074
:101AD000F008F000E018000000211C031E211E0089
:101AE00000F00888700000001E212324192721100F
:101AF00010160E00000000000000000000000000B2
:101B0000000000E018040200000000071820400058
:101B100000020418E0000000004020180700000048
:101B2000404080F0804040000202010F01020200AC
:101B3000000000F0000000000101011F0101010090
:101B4000000000000000000080B0700000000000F5
:101B5000000000000000000000010101010101017E
:101B60000000000000000000003030000000000015
:101B700000000000806018040060180601000000EA
:101B800000E010080810E000000F102020100F00E7
:101B9000001010F8000000000020203F202000006E
:101BA00000700808088870000030282422213000C6
:101BB00000300888884830000018202020110E00CE
:101BC0000000C02010F8000000070424243F240077
:101BD00000F80888880808000019212020110E004C
:101BE00000E0108888180000000F112020110E005E
:101BF00000380808C83808000000003F0000000056
:101C00000070880808887000001C222121221C0016
:101C100000E010080810E0000000312222110F003F
:101C2000000000C0C00000000000003030000000D4
:101C30000000008000000000000080600000000044
:101C4000000080402010080000010204081020005D
:101C500040404040404040000404040404040400A8
:101C6000000810204080000000201008040201003D
:101C7000007048080808F00000000030360100003D
:101C8000C030C828E810E0000718272423140B00F0
:101C90000000C038E0000000203C2302022738206A
:101CA00008F8888888700000203F202020110E004E
:101CB000C030080808083800071820202010080045
:101CC00008F808080810E000203F202020100F002E
:101CD00008F88888E8081000203F202023201800FA
:101CE00008F88888E8081000203F20000300000062
:101CF000C03008080838000007182020221E020003
:101D000008F808000008F808203F210101213F20C1
:101D1000000808F8080800000020203F20200000EC
:101D200000000808F8080800C08080807F000000DC
:101D300008F888C028180800203F20012638200015
:101D400008F8080000000000203F2020202030007C
:101D500008F8F800F8F80800203F003F003F200096
:101D600008F830C00008F808203F200007183F009E
:101D7000E01008080810E0000F10202020100F00CD
:101D800008F808080808F000203F210101010000C0
:101D9000E01008080810E0000F18242438504F0005
:101DA00008F8888888887000203F2000030C3020C5
:101DB00000708808080838000038202121221C0003
:101DC000180808F8080818000000203F200000004C
:101DD00008F808000008F808001F202020201F0035
:101DE0000878880000C83808000007380E01000095
:101DF000F80800F80008F800033C0700073C03005F
:101E0000081868808068180820302C03032C3020C4
:101E10000838C800C83808000000203F2000000033
:101E200010080808C838080020382621202018008B
:101E3000000000FE020202000000007F404040005F
:101E4000000C30C000000000000000010638C00097
:101E500000020202FE000000004040407F0000003F
:101E60000000040202020400000000000000000064
:101E70000000000000000000808080808080808062
:101E8000000202040000000000000000000000004A
:101E900000008080808000000019242222223F2040
:101EA00008F8008080000000003F112020110E0083
:101EB0000000008080800000000E11202020110012
:101EC000000000808088F800000E112020103F20C4
:101ED0000000808080800000001F22222222130048
:101EE000008080F0888888180020203F2020000093
:101EF0000000808080808000006B94949493600048
:101F000008F8008080800000203F210000203F2052
:101F100000809898000000000020203F2020000052
:101F2000000000809898000000C08080807F000042
:101F300008F8000080808000203F24022D3020001F
:101F4000000808F8000000000020203F20200000CA
:101F50008080808080808000203F20003F20003FE4
:101F60008080008080800000203F210000203F20F2
:101F70000000808080800000001F202020201F00A3
:101F8000808000808000000080FFA12020110E00D2
:101F90000000008080808000000E112020A0FF80C3
:101FA000808080008080800020203F212000010070
:101FB00000008080808080000033242424241900C5
:101FC000008080E0808000000000001F20200000D2
:101FD0008080000000808000001F202020103F2013
:101FE000808080000080808000010E3008060100A3
:101FF00080800080008080800F300C030C300F0048
:1020000000808000808080000020312E0E31200072
:10201000808080000080808080818E7018060100A2
:1020200000808080808080000021302C22213000C0
:1020300000000000807C020200000000003F4040E1
:1020400000000000FF00000000000000FF00000092
:102050000002027C800000000040403F00000000C1
:10206000000601010202040400000000000000005C
:1020700090200008000000202C0000003C17000801
:10208000BC2000082C000020040400004C170008AD
:10209000000000000102030401020304060708090E
:1020A000020406080000000000000000000000001C
:0C20B00000000000000000000000000024
:04000005080000ED02
:00000001FF
